8=FIX.4.4|9=123|35=A|34=1|49=a0f4e9c8-925a-47f0-8521-b0f7257385f7|52=20160323-10:37:55.446|56=BTCC-PRO-EXCHANGE-SERVER|98=0|108=5000|141=Y|10=097|8=FIX.4.4|9=323|35=AF2|34=2|49=a0f4e9c8-925a-47f0-8521-b0f7257385f7|52=20160323-10:37:55.501|56=BTCC-PRO-EXCHANGE-SERVER|1=1458729350338000:Basic YWI2ODlkM2ItYWM2OC00MjlmLTgxZTgtNTM4YjhjNDI4NDI5OjJiMGE2ZTgyOWE1MWFiZDBlMGQ2YWMyZjJmYjQ5NDNhYjM4ZmYyMDA=|55=XBTCNY|584=reqIDJ7|9010=19700101-00:00:00.000|9011=20160426-16:00:00.000|9020=1|39=0|10=190|