8=FIX.4.4|9=123|35=A|34=1|49=a0f4e9c8-925a-47f0-8521-b0f7257385f7|52=20160322-06:22:05.564|56=BTCC-PRO-EXCHANGE-SERVER|98=0|108=5000|141=Y|10=091|
8=FIX.4.4|9=123|35=A|34=1|49=BTCC-PRO-EXCHANGE-SERVER|52=20160322-06:22:05.579|56=a0f4e9c8-925a-47f0-8521-b0f7257385f7|98=0|108=5000|141=Y|10=097|
8=FIX.4.4|9=312|35=D|34=2|49=a0f4e9c8-925a-47f0-8521-b0f7257385f7|52=20160322-06:22:05.647|56=BTCC-PRO-EXCHANGE-SERVER|1=1458627716005000:Basic NzQyOTM0NjAtN2Y5Zi00ZmFlLWFjOTAtZjA3NjNjMWYyZGI5OjU2NzE1OTM0Y2I0Yzc0MTBlYTYzYTNmYzc1ZTU1ZTg5YzVjODgyMWM=|11=2016031705|38=7|40=2|44=2466.1|54=2|55=XBTCNY|59=0|60=20160322-06:21:58.398|10=215|
8=FIX.4.4|9=215|35=8|34=2|49=BTCC-PRO-EXCHANGE-SERVER|52=20160322-06:22:05.712|56=a0f4e9c8-925a-47f0-8521-b0f7257385f7|6=0|11=2016031705|14=0|17=1b9223b0-cc03-43b5-ba8c-e57012294e47|37=-1|39=8|44=0|54=2|55=XBTCNY|103=1|150=8|151=0|10=138|
8=FIX.4.4|9=123|35=A|34=1|49=a0f4e9c8-925a-47f0-8521-b0f7257385f7|52=20160322-06:25:11.151|56=BTCC-PRO-EXCHANGE-SERVER|98=0|108=5000|141=Y|10=083|
8=FIX.4.4|9=123|35=A|34=1|49=BTCC-PRO-EXCHANGE-SERVER|52=20160322-06:25:11.186|56=a0f4e9c8-925a-47f0-8521-b0f7257385f7|98=0|108=5000|141=Y|10=091|
8=FIX.4.4|9=310|35=D|34=2|49=a0f4e9c8-925a-47f0-8521-b0f7257385f7|52=20160322-06:25:11.237|56=BTCC-PRO-EXCHANGE-SERVER|1=1458627906073000:Basic NzQyOTM0NjAtN2Y5Zi00ZmFlLWFjOTAtZjA3NjNjMWYyZGI5OmIyZTdmM2Q2ZTVjZGQwMzM3MDkyZjA3Y2I4MzlmYmQzMmI4ZDVlYmQ=|11=2016031706|38=7|40=2|44=2100|54=2|55=XBTCNY|59=0|60=20160322-06:25:07.370|10=243|
8=FIX.4.4|9=215|35=8|34=2|49=BTCC-PRO-EXCHANGE-SERVER|52=20160322-06:25:11.237|56=a0f4e9c8-925a-47f0-8521-b0f7257385f7|6=0|11=2016031706|14=0|17=39cba0af-4843-40cf-b485-c24cdaa60764|37=-1|39=8|44=0|54=2|55=XBTCNY|103=1|150=8|151=0|10=037|
8=FIX.4.4|9=123|35=A|34=1|49=a0f4e9c8-925a-47f0-8521-b0f7257385f7|52=20160322-06:26:56.992|56=BTCC-PRO-EXCHANGE-SERVER|98=0|108=5000|141=Y|10=106|
8=FIX.4.4|9=123|35=A|34=1|49=BTCC-PRO-EXCHANGE-SERVER|52=20160322-06:26:57.420|56=a0f4e9c8-925a-47f0-8521-b0f7257385f7|98=0|108=5000|141=Y|10=093|
8=FIX.4.4|9=310|35=D|34=2|49=a0f4e9c8-925a-47f0-8521-b0f7257385f7|52=20160322-06:26:57.482|56=BTCC-PRO-EXCHANGE-SERVER|1=1458628011477000:Basic NzQyOTM0NjAtN2Y5Zi00ZmFlLWFjOTAtZjA3NjNjMWYyZGI5OmQxZTI5YzY1MzYyOWQ2MzNmN2MyMDE2OTRjYzk3OGNjM2UxOTdiNzE=|11=2016031708|38=7|40=2|44=2100|54=2|55=XBTCNY|59=0|60=20160322-06:26:52.854|10=220|
8=FIX.4.4|9=256|35=8|34=2|49=BTCC-PRO-EXCHANGE-SERVER|52=20160322-06:27:02.078|56=a0f4e9c8-925a-47f0-8521-b0f7257385f7|6=0|11=2016031708|14=0|17=1ed21da5-d6a5-48f3-a611-1370dd6dc1a2|37=-1|39=8|44=2100|54=2|55=XBTCNY|58=Price Excceeds Current Price Band|103=99|150=8|151=0|10=134|
8=FIX.4.4|9=123|35=A|34=1|49=a0f4e9c8-925a-47f0-8521-b0f7257385f7|52=20160322-06:29:45.894|56=BTCC-PRO-EXCHANGE-SERVER|98=0|108=5000|141=Y|10=108|
8=FIX.4.4|9=123|35=A|34=1|49=BTCC-PRO-EXCHANGE-SERVER|52=20160322-06:29:45.925|56=a0f4e9c8-925a-47f0-8521-b0f7257385f7|98=0|108=5000|141=Y|10=103|
8=FIX.4.4|9=310|35=D|34=2|49=a0f4e9c8-925a-47f0-8521-b0f7257385f7|52=20160322-06:29:45.990|56=BTCC-PRO-EXCHANGE-SERVER|1=1458628180122000:Basic NzQyOTM0NjAtN2Y5Zi00ZmFlLWFjOTAtZjA3NjNjMWYyZGI5OmY4YjZmMjQ1ODA5ODBiZGI5M2IxZDRjODAzZjUwMGNkNzk0MjYwMzU=|11=2016031709|38=7|40=2|44=2500|54=2|55=XBTCNY|59=0|60=20160322-06:29:41.518|10=147|
8=FIX.4.4|9=282|35=8|34=2|49=BTCC-PRO-EXCHANGE-SERVER|52=20160322-06:29:48.593|56=a0f4e9c8-925a-47f0-8521-b0f7257385f7|6=0|11=2016031709|14=0|17=e265a59b-482b-4148-a576-a1d51852a606|32=0|37=5a37534cf09a4cf5ac832d938a480af1|39=A|40=2|44=2500|54=2|55=XBTCNY|59=0|60=20160322-06:29:47.009|150=A|151=7|10=194|
8=FIX.4.4|9=282|35=8|34=3|49=BTCC-PRO-EXCHANGE-SERVER|52=20160322-06:29:48.858|56=a0f4e9c8-925a-47f0-8521-b0f7257385f7|6=0|11=2016031709|14=0|17=cfaf30ac-6c0d-4876-abff-454d983ac001|32=0|37=5a37534cf09a4cf5ac832d938a480af1|39=0|40=2|44=2500|54=2|55=XBTCNY|59=0|60=20160322-06:29:47.009|150=0|151=7|10=236|
8=FIX.4.4|9=293|35=8|34=4|49=BTCC-PRO-EXCHANGE-SERVER|52=20160322-06:30:20.179|56=a0f4e9c8-925a-47f0-8521-b0f7257385f7|6=2500|11=2016031709|14=1|17=63baf284-037d-4186-a71f-45d42a87e9cf|31=2500|32=1|37=5a37534cf09a4cf5ac832d938a480af1|39=1|40=2|44=2500|54=2|55=XBTCNY|59=0|60=20160322-06:29:47.009|150=F|151=6|10=069|
8=FIX.4.4|9=123|35=A|34=1|49=a0f4e9c8-925a-47f0-8521-b0f7257385f7|52=20160322-06:36:13.462|56=BTCC-PRO-EXCHANGE-SERVER|98=0|108=5000|141=Y|10=092|
8=FIX.4.4|9=123|35=A|34=1|49=BTCC-PRO-EXCHANGE-SERVER|52=20160322-06:36:13.477|56=a0f4e9c8-925a-47f0-8521-b0f7257385f7|98=0|108=5000|141=Y|10=098|
8=FIX.4.4|9=306|35=G|34=2|49=a0f4e9c8-925a-47f0-8521-b0f7257385f7|52=20160322-06:36:13.539|56=BTCC-PRO-EXCHANGE-SERVER|1=1458628567536000:Basic NzQyOTM0NjAtN2Y5Zi00ZmFlLWFjOTAtZjA3NjNjMWYyZGI5OmE1ZWNlNjEwMjlmMTc1MGE4NWI2ZWNjMWE5OGUwMTQ5MDdkODg3ZTg=|11=2016032201|37=5a37534cf09a4cf5ac832d938a480af1|38=2|44=2534|55=XBTCNY|10=026|
8=FIX.4.4|9=293|35=8|34=2|49=BTCC-PRO-EXCHANGE-SERVER|52=20160322-06:36:13.723|56=a0f4e9c8-925a-47f0-8521-b0f7257385f7|6=2500|11=2016032201|14=1|17=fa29caa2-8030-40f4-bd17-a43a0d730444|31=2500|32=1|37=5a37534cf09a4cf5ac832d938a480af1|39=1|40=2|44=2534|54=2|55=XBTCNY|59=0|60=20160322-06:29:47.009|150=5|151=2|10=005|
8=FIX.4.4|9=123|35=A|34=1|49=a0f4e9c8-925a-47f0-8521-b0f7257385f7|52=20160322-06:36:56.451|56=BTCC-PRO-EXCHANGE-SERVER|98=0|108=5000|141=Y|10=097|
8=FIX.4.4|9=123|35=A|34=1|49=BTCC-PRO-EXCHANGE-SERVER|52=20160322-06:36:56.461|56=a0f4e9c8-925a-47f0-8521-b0f7257385f7|98=0|108=5000|141=Y|10=098|
8=FIX.4.4|9=324|35=F|34=2|49=a0f4e9c8-925a-47f0-8521-b0f7257385f7|52=20160322-06:36:56.522|56=BTCC-PRO-EXCHANGE-SERVER|1=1458628610659000:Basic NzQyOTM0NjAtN2Y5Zi00ZmFlLWFjOTAtZjA3NjNjMWYyZGI5OjUxOTMwMDM3ODllMTg2NjdjMGU5NjZkNmMwNDczOGMxMzFmNjMxOTk=|11=clOrdID123d|37=5a37534cf09a4cf5ac832d938a480af1|54=1|55=XBTCNY|60=20160322-06:36:52.125|10=084|
8=FIX.4.4|9=238|35=8|34=2|49=BTCC-PRO-EXCHANGE-SERVER|52=20160322-06:36:56.734|56=a0f4e9c8-925a-47f0-8521-b0f7257385f7|6=2500|11=clOrdID123d|14=1|17=bb086f2f-cf7f-44c5-a25e-91afdc38028b|37=5a37534cf09a4cf5ac832d938a480af1|39=6|54=2|55=XBTCNY|150=6|151=0|10=065|
8=FIX.4.4|9=238|35=8|34=3|49=BTCC-PRO-EXCHANGE-SERVER|52=20160322-06:36:56.748|56=a0f4e9c8-925a-47f0-8521-b0f7257385f7|6=2500|11=clOrdID123d|14=1|17=8c0ad40e-d291-41ba-9037-3e027519dea1|37=5a37534cf09a4cf5ac832d938a480af1|39=2|54=2|55=XBTCNY|150=4|151=0|10=110|
8=FIX.4.4|9=123|35=A|34=1|49=a0f4e9c8-925a-47f0-8521-b0f7257385f7|52=20160322-06:38:02.621|56=BTCC-PRO-EXCHANGE-SERVER|98=0|108=5000|141=Y|10=089|
8=FIX.4.4|9=123|35=A|34=1|49=BTCC-PRO-EXCHANGE-SERVER|52=20160322-06:38:02.697|56=a0f4e9c8-925a-47f0-8521-b0f7257385f7|98=0|108=5000|141=Y|10=102|
8=FIX.4.4|9=306|35=G|34=2|49=a0f4e9c8-925a-47f0-8521-b0f7257385f7|52=20160322-06:38:02.792|56=BTCC-PRO-EXCHANGE-SERVER|1=1458628675968000:Basic NzQyOTM0NjAtN2Y5Zi00ZmFlLWFjOTAtZjA3NjNjMWYyZGI5OjBhYTY1ODdhZDY0M2ZkZjQyOGJhZmI0MGVkMWQwMjJiNDQxMTNiZDk=|11=2016032202|37=5a37534cf09a4cf5ac832d938a480af1|38=2|44=2534|55=XBTCNY|10=209|
8=FIX.4.4|9=189|35=9|34=2|49=BTCC-PRO-EXCHANGE-SERVER|52=20160322-06:38:06.675|56=a0f4e9c8-925a-47f0-8521-b0f7257385f7|11=2016032202|37=5a37534cf09a4cf5ac832d938a480af1|39=8|58=TooLateToCancel|102=0|434=2|10=022|
8=FIX.4.4|9=123|35=A|34=1|49=a0f4e9c8-925a-47f0-8521-b0f7257385f7|52=20160322-06:39:24.179|56=BTCC-PRO-EXCHANGE-SERVER|98=0|108=5000|141=Y|10=102|
8=FIX.4.4|9=123|35=A|34=1|49=BTCC-PRO-EXCHANGE-SERVER|52=20160322-06:39:24.237|56=a0f4e9c8-925a-47f0-8521-b0f7257385f7|98=0|108=5000|141=Y|10=097|
8=FIX.4.4|9=310|35=D|34=2|49=a0f4e9c8-925a-47f0-8521-b0f7257385f7|52=20160322-06:39:24.312|56=BTCC-PRO-EXCHANGE-SERVER|1=1458628757580000:Basic NzQyOTM0NjAtN2Y5Zi00ZmFlLWFjOTAtZjA3NjNjMWYyZGI5OjhkZjI1Yjc2MTY2ZDc4YjRhNDRhMDA3ZDRmNzEzMmRlMzMzYjNjOWQ=|11=2016031710|38=7|40=2|44=2500|54=2|55=XBTCNY|59=0|60=20160322-06:39:19.194|10=005|
8=FIX.4.4|9=282|35=8|34=2|49=BTCC-PRO-EXCHANGE-SERVER|52=20160322-06:39:25.442|56=a0f4e9c8-925a-47f0-8521-b0f7257385f7|6=0|11=2016031710|14=0|17=0ba0a82d-aff0-43df-a172-93a470aa6872|32=0|37=bd915485f0be481d90c5c264959edbf8|39=A|40=2|44=2500|54=2|55=XBTCNY|59=0|60=20160322-06:39:23.850|150=A|151=7|10=160|
8=FIX.4.4|9=282|35=8|34=3|49=BTCC-PRO-EXCHANGE-SERVER|52=20160322-06:39:25.521|56=a0f4e9c8-925a-47f0-8521-b0f7257385f7|6=0|11=2016031710|14=0|17=4faf62ca-db45-49d0-889f-fed5f36e28b3|32=0|37=bd915485f0be481d90c5c264959edbf8|39=0|40=2|44=2500|54=2|55=XBTCNY|59=0|60=20160322-06:39:23.850|150=0|151=7|10=004|
8=FIX.4.4|9=123|35=A|34=1|49=a0f4e9c8-925a-47f0-8521-b0f7257385f7|52=20160322-06:39:57.985|56=BTCC-PRO-EXCHANGE-SERVER|98=0|108=5000|141=Y|10=113|
8=FIX.4.4|9=123|35=A|34=1|49=BTCC-PRO-EXCHANGE-SERVER|52=20160322-06:39:58.007|56=a0f4e9c8-925a-47f0-8521-b0f7257385f7|98=0|108=5000|141=Y|10=099|
8=FIX.4.4|9=324|35=F|34=2|49=a0f4e9c8-925a-47f0-8521-b0f7257385f7|52=20160322-06:39:58.072|56=BTCC-PRO-EXCHANGE-SERVER|1=1458628791980000:Basic NzQyOTM0NjAtN2Y5Zi00ZmFlLWFjOTAtZjA3NjNjMWYyZGI5Ojc4MjU5ODY3MjkzOWZmZGI2ZDU0MGNiMjE2MzMzNGUwZTlhZWIyYTk=|11=clOrdID123d|37=bd915485f0be481d90c5c264959edbf8|54=1|55=XBTCNY|60=20160322-06:39:53.306|10=213|
8=FIX.4.4|9=235|35=8|34=2|49=BTCC-PRO-EXCHANGE-SERVER|52=20160322-06:39:59.849|56=a0f4e9c8-925a-47f0-8521-b0f7257385f7|6=0|11=clOrdID123d|14=0|17=12ba3f87-b574-4075-a41c-fdd25650c54b|37=bd915485f0be481d90c5c264959edbf8|39=6|54=2|55=XBTCNY|150=6|151=0|10=253|
8=FIX.4.4|9=235|35=8|34=3|49=BTCC-PRO-EXCHANGE-SERVER|52=20160322-06:39:59.852|56=a0f4e9c8-925a-47f0-8521-b0f7257385f7|6=0|11=clOrdID123d|14=0|17=16823272-ff67-4fc7-87c5-6b02a48c69d2|37=bd915485f0be481d90c5c264959edbf8|39=4|54=2|55=XBTCNY|150=4|151=0|10=175|
8=FIX.4.4|9=123|35=A|34=1|49=a0f4e9c8-925a-47f0-8521-b0f7257385f7|52=20160322-06:40:43.955|56=BTCC-PRO-EXCHANGE-SERVER|98=0|108=5000|141=Y|10=097|
8=FIX.4.4|9=123|35=A|34=1|49=BTCC-PRO-EXCHANGE-SERVER|52=20160322-06:40:43.970|56=a0f4e9c8-925a-47f0-8521-b0f7257385f7|98=0|108=5000|141=Y|10=094|
8=FIX.4.4|9=310|35=D|34=2|49=a0f4e9c8-925a-47f0-8521-b0f7257385f7|52=20160322-06:40:44.034|56=BTCC-PRO-EXCHANGE-SERVER|1=1458628837759000:Basic NzQyOTM0NjAtN2Y5Zi00ZmFlLWFjOTAtZjA3NjNjMWYyZGI5OmQ4M2VmMmUwMmM2OTM4ZjQ0ZjJkZjJmOTRjN2MyMGM2ODZkOTg0N2M=|11=2016031711|38=7|40=2|44=2500|54=2|55=XBTCNY|59=0|60=20160322-06:40:39.327|10=009|
8=FIX.4.4|9=282|35=8|34=2|49=BTCC-PRO-EXCHANGE-SERVER|52=20160322-06:40:45.985|56=a0f4e9c8-925a-47f0-8521-b0f7257385f7|6=0|11=2016031711|14=0|17=ec87343b-ee97-4cdd-beba-816d98e20aae|32=0|37=20adb697c79b43b1a94d6035366a301e|39=A|40=2|44=2500|54=2|55=XBTCNY|59=0|60=20160322-06:40:44.393|150=A|151=7|10=003|
8=FIX.4.4|9=282|35=8|34=3|49=BTCC-PRO-EXCHANGE-SERVER|52=20160322-06:40:46.302|56=a0f4e9c8-925a-47f0-8521-b0f7257385f7|6=0|11=2016031711|14=0|17=10cb1c3c-87cf-44a8-92d0-a365bb14ae5d|32=0|37=20adb697c79b43b1a94d6035366a301e|39=0|40=2|44=2500|54=2|55=XBTCNY|59=0|60=20160322-06:40:44.393|150=0|151=7|10=041|
8=FIX.4.4|9=123|35=A|34=1|49=a0f4e9c8-925a-47f0-8521-b0f7257385f7|52=20160322-06:41:22.740|56=BTCC-PRO-EXCHANGE-SERVER|98=0|108=5000|141=Y|10=087|
8=FIX.4.4|9=123|35=A|34=1|49=BTCC-PRO-EXCHANGE-SERVER|52=20160322-06:41:22.775|56=a0f4e9c8-925a-47f0-8521-b0f7257385f7|98=0|108=5000|141=Y|10=095|
8=FIX.4.4|9=324|35=F|34=2|49=a0f4e9c8-925a-47f0-8521-b0f7257385f7|52=20160322-06:41:22.843|56=BTCC-PRO-EXCHANGE-SERVER|1=1458628874531000:Basic NzQyOTM0NjAtN2Y5Zi00ZmFlLWFjOTAtZjA3NjNjMWYyZGI5Ojc0ZTk0OWYwMTExYWVmNGRmMzc2ODNhMjBmNmY1N2E5NDc3OGIwOTI=|11=clOrdID123d|37=bd915485f0be481d90c5c264959edbf8|54=1|55=XBTCNY|60=20160322-06:41:16.215|10=051|
8=FIX.4.4|9=190|35=9|34=2|49=BTCC-PRO-EXCHANGE-SERVER|52=20160322-06:41:23.068|56=a0f4e9c8-925a-47f0-8521-b0f7257385f7|11=clOrdID123d|37=bd915485f0be481d90c5c264959edbf8|39=4|58=TooLateToCancel|102=0|434=1|10=156|
8=FIX.4.4|9=123|35=A|34=1|49=a0f4e9c8-925a-47f0-8521-b0f7257385f7|52=20160322-06:41:57.374|56=BTCC-PRO-EXCHANGE-SERVER|98=0|108=5000|141=Y|10=098|
8=FIX.4.4|9=123|35=A|34=1|49=BTCC-PRO-EXCHANGE-SERVER|52=20160322-06:41:57.393|56=a0f4e9c8-925a-47f0-8521-b0f7257385f7|98=0|108=5000|141=Y|10=099|
8=FIX.4.4|9=310|35=D|34=2|49=a0f4e9c8-925a-47f0-8521-b0f7257385f7|52=20160322-06:41:57.462|56=BTCC-PRO-EXCHANGE-SERVER|1=1458628911105000:Basic NzQyOTM0NjAtN2Y5Zi00ZmFlLWFjOTAtZjA3NjNjMWYyZGI5OjY4NzZkYjI2ODU1NDRmYzBiYzcwZjIwZTgyNDE4NTYwODY0MzcwYzY=|11=2016031711|38=7|40=2|44=2500|54=2|55=XBTCNY|59=0|60=20160322-06:41:52.743|10=099|
8=FIX.4.4|9=234|35=8|34=2|49=BTCC-PRO-EXCHANGE-SERVER|52=20160322-06:41:59.647|56=a0f4e9c8-925a-47f0-8521-b0f7257385f7|6=0|11=2016031711|14=0|17=083318f0-57b7-4ab5-8cc8-1cb66d43a71f|37=-1|39=8|44=0|54=2|55=XBTCNY|58=DUPLICATE_ORDER|103=6|150=8|151=0|10=002|
8=FIX.4.4|9=123|35=A|34=1|49=a0f4e9c8-925a-47f0-8521-b0f7257385f7|52=20160322-06:42:41.496|56=BTCC-PRO-EXCHANGE-SERVER|98=0|108=5000|141=Y|10=097|
8=FIX.4.4|9=123|35=A|34=1|49=BTCC-PRO-EXCHANGE-SERVER|52=20160322-06:42:41.538|56=a0f4e9c8-925a-47f0-8521-b0f7257385f7|98=0|108=5000|141=Y|10=094|
8=FIX.4.4|9=310|35=D|34=2|49=a0f4e9c8-925a-47f0-8521-b0f7257385f7|52=20160322-06:42:41.598|56=BTCC-PRO-EXCHANGE-SERVER|1=1458628952946000:Basic NzQyOTM0NjAtN2Y5Zi00ZmFlLWFjOTAtZjA3NjNjMWYyZGI5OjYyYThlNDUxNGEwYTZhMTYzNjgxZGQwYTc2NDYyMTE3MTBmZGJjNWU=|11=2016031712|38=7|40=2|44=2500|54=2|55=XBTCNY|59=0|60=20160322-06:42:34.822|10=088|
8=FIX.4.4|9=282|35=8|34=2|49=BTCC-PRO-EXCHANGE-SERVER|52=20160322-06:42:44.948|56=a0f4e9c8-925a-47f0-8521-b0f7257385f7|6=0|11=2016031712|14=0|17=55f513bb-4fbd-4f16-98c1-149268202b43|32=0|37=3fc4200d634242cd80a0f387f0d6c262|39=A|40=2|44=2500|54=2|55=XBTCNY|59=0|60=20160322-06:42:43.234|150=A|151=7|10=110|
8=FIX.4.4|9=282|35=8|34=3|49=BTCC-PRO-EXCHANGE-SERVER|52=20160322-06:42:45.240|56=a0f4e9c8-925a-47f0-8521-b0f7257385f7|6=0|11=2016031712|14=0|17=dce48c1d-e1ed-4380-aa55-6f47f3e785e1|32=0|37=3fc4200d634242cd80a0f387f0d6c262|39=0|40=2|44=2500|54=2|55=XBTCNY|59=0|60=20160322-06:42:43.234|150=0|151=7|10=058|
8=FIX.4.4|9=123|35=A|34=1|49=a0f4e9c8-925a-47f0-8521-b0f7257385f7|52=20160322-06:44:15.788|56=BTCC-PRO-EXCHANGE-SERVER|98=0|108=5000|141=Y|10=104|
8=FIX.4.4|9=123|35=A|34=1|49=BTCC-PRO-EXCHANGE-SERVER|52=20160322-06:44:15.819|56=a0f4e9c8-925a-47f0-8521-b0f7257385f7|98=0|108=5000|141=Y|10=099|
8=FIX.4.4|9=306|35=G|34=2|49=a0f4e9c8-925a-47f0-8521-b0f7257385f7|52=20160322-06:44:15.944|56=BTCC-PRO-EXCHANGE-SERVER|1=1458629051596000:Basic NzQyOTM0NjAtN2Y5Zi00ZmFlLWFjOTAtZjA3NjNjMWYyZGI5OjQxYzI1NGE2YWI1ZWFmMTNiYmM1NThhN2FhZmJjZGM2NWZkZjk5NzI=|11=2016032203|37=3fc4200d634242cd80a0f387f0d6c262|38=6|44=2500|55=XBTCNY|10=016|
8=FIX.4.4|9=188|35=9|34=2|49=BTCC-PRO-EXCHANGE-SERVER|52=20160322-06:44:16.974|56=a0f4e9c8-925a-47f0-8521-b0f7257385f7|11=2016032203|37=3fc4200d634242cd80a0f387f0d6c262|39=8|58=account error|102=99|434=2|10=095|
8=FIX.4.4|9=123|35=A|34=1|49=a0f4e9c8-925a-47f0-8521-b0f7257385f7|52=20160322-06:45:02.486|56=BTCC-PRO-EXCHANGE-SERVER|98=0|108=5000|141=Y|10=096|
8=FIX.4.4|9=123|35=A|34=1|49=BTCC-PRO-EXCHANGE-SERVER|52=20160322-06:45:02.511|56=a0f4e9c8-925a-47f0-8521-b0f7257385f7|98=0|108=5000|141=Y|10=085|
8=FIX.4.4|9=306|35=G|34=2|49=a0f4e9c8-925a-47f0-8521-b0f7257385f7|52=20160322-06:45:02.592|56=BTCC-PRO-EXCHANGE-SERVER|1=1458629095677000:Basic NzQyOTM0NjAtN2Y5Zi00ZmFlLWFjOTAtZjA3NjNjMWYyZGI5OjcyODAyNTRhZWUxNzQ0ZTA4MmU3ZTgyZDNmYTliZjQ4NDM1M2U0YWU=|11=2016032203|37=3fc4200d634242cd80a0f387f0d6c262|38=6|44=2500|55=XBTCNY|10=042|
8=FIX.4.4|9=282|35=8|34=2|49=BTCC-PRO-EXCHANGE-SERVER|52=20160322-06:45:02.839|56=a0f4e9c8-925a-47f0-8521-b0f7257385f7|6=0|11=2016032203|14=0|17=668b62a6-e125-4ef7-9080-6cee2e48ecfa|32=0|37=3fc4200d634242cd80a0f387f0d6c262|39=0|40=2|44=2500|54=2|55=XBTCNY|59=0|60=20160322-06:42:43.234|150=5|151=6|10=024|
8=FIX.4.4|9=123|35=A|34=1|49=a0f4e9c8-925a-47f0-8521-b0f7257385f7|52=20160322-06:45:34.488|56=BTCC-PRO-EXCHANGE-SERVER|98=0|108=5000|141=Y|10=103|
8=FIX.4.4|9=123|35=A|34=1|49=BTCC-PRO-EXCHANGE-SERVER|52=20160322-06:45:34.610|56=a0f4e9c8-925a-47f0-8521-b0f7257385f7|98=0|108=5000|141=Y|10=090|
8=FIX.4.4|9=306|35=G|34=2|49=a0f4e9c8-925a-47f0-8521-b0f7257385f7|52=20160322-06:45:34.692|56=BTCC-PRO-EXCHANGE-SERVER|1=1458629128433000:Basic NzQyOTM0NjAtN2Y5Zi00ZmFlLWFjOTAtZjA3NjNjMWYyZGI5OjBmZjk3OGEwNWYwY2IzN2NiNjdmZTIxMzc5NTYwNjQ0YTQ3NjY0NGM=|11=2016032203|37=3fc4200d634242cd80a0f387f0d6c262|38=7|44=2500|55=XBTCNY|10=091|
8=FIX.4.4|9=179|35=9|34=2|49=BTCC-PRO-EXCHANGE-SERVER|52=20160322-06:45:34.907|56=a0f4e9c8-925a-47f0-8521-b0f7257385f7|11=2016032203|37=3fc4200d634242cd80a0f387f0d6c262|39=8|58=Other|102=6|434=2|10=235|
8=FIX.4.4|9=123|35=A|34=1|49=a0f4e9c8-925a-47f0-8521-b0f7257385f7|52=20160322-06:46:59.440|56=BTCC-PRO-EXCHANGE-SERVER|98=0|108=5000|141=Y|10=099|
8=FIX.4.4|9=123|35=A|34=1|49=BTCC-PRO-EXCHANGE-SERVER|52=20160322-06:47:00.108|56=a0f4e9c8-925a-47f0-8521-b0f7257385f7|98=0|108=5000|141=Y|10=087|
8=FIX.4.4|9=310|35=D|34=2|49=a0f4e9c8-925a-47f0-8521-b0f7257385f7|52=20160322-06:47:00.172|56=BTCC-PRO-EXCHANGE-SERVER|1=1458629213241000:Basic NzQyOTM0NjAtN2Y5Zi00ZmFlLWFjOTAtZjA3NjNjMWYyZGI5OmRiMGRjZDQ1YTEzNzZkOTZhZWJlYjkzZmZmZWYyYzcwYWNiMzc1M2U=|11=2016031713|38=7|40=2|44=2450|54=1|55=XBTCNY|59=0|60=20160322-06:46:54.690|10=239|
8=FIX.4.4|9=282|35=8|34=2|49=BTCC-PRO-EXCHANGE-SERVER|52=20160322-06:47:00.417|56=a0f4e9c8-925a-47f0-8521-b0f7257385f7|6=0|11=2016031713|14=0|17=ef9e7820-f056-4787-8899-be255f0547b6|32=0|37=2d87530a4e014ec0aa011fba8f4a9d10|39=A|40=2|44=2450|54=1|55=XBTCNY|59=0|60=20160322-06:46:58.822|150=A|151=7|10=239|
8=FIX.4.4|9=282|35=8|34=3|49=BTCC-PRO-EXCHANGE-SERVER|52=20160322-06:47:00.420|56=a0f4e9c8-925a-47f0-8521-b0f7257385f7|6=0|11=2016031713|14=0|17=1fd8d3a6-af23-4d71-9201-08885a7a2619|32=0|37=2d87530a4e014ec0aa011fba8f4a9d10|39=0|40=2|44=2450|54=1|55=XBTCNY|59=0|60=20160322-06:46:58.822|150=0|151=7|10=209|
8=FIX.4.4|9=123|35=A|34=1|49=a0f4e9c8-925a-47f0-8521-b0f7257385f7|52=20160322-06:47:41.993|56=BTCC-PRO-EXCHANGE-SERVER|98=0|108=5000|141=Y|10=104|
8=FIX.4.4|9=123|35=A|34=1|49=BTCC-PRO-EXCHANGE-SERVER|52=20160322-06:47:42.015|56=a0f4e9c8-925a-47f0-8521-b0f7257385f7|98=0|108=5000|141=Y|10=090|
8=FIX.4.4|9=324|35=F|34=2|49=a0f4e9c8-925a-47f0-8521-b0f7257385f7|52=20160322-06:47:42.074|56=BTCC-PRO-EXCHANGE-SERVER|1=1458629255779000:Basic NzQyOTM0NjAtN2Y5Zi00ZmFlLWFjOTAtZjA3NjNjMWYyZGI5OjhhNjNkMzA3NjkxN2Y3ZDJjNmUwNTI2ZTQzMGNiMjRmY2NkOGMxMzQ=|11=clOrdID123d|37=2d87530a4e014ec0aa011fba8f4a9d10|54=1|55=XBTCNY|60=20160322-06:47:37.117|10=038|
8=FIX.4.4|9=235|35=8|34=2|49=BTCC-PRO-EXCHANGE-SERVER|52=20160322-06:47:42.301|56=a0f4e9c8-925a-47f0-8521-b0f7257385f7|6=0|11=clOrdID123d|14=0|17=7a1f47a0-431c-46ea-ac81-e8037968ef88|37=2d87530a4e014ec0aa011fba8f4a9d10|39=6|54=1|55=XBTCNY|150=6|151=0|10=245|
8=FIX.4.4|9=235|35=8|34=3|49=BTCC-PRO-EXCHANGE-SERVER|52=20160322-06:47:42.303|56=a0f4e9c8-925a-47f0-8521-b0f7257385f7|6=0|11=clOrdID123d|14=0|17=fc0518ea-31c4-4a94-adce-4883afbb36bb|37=2d87530a4e014ec0aa011fba8f4a9d10|39=4|54=1|55=XBTCNY|150=4|151=0|10=206|
8=FIX.4.4|9=123|35=A|34=1|49=a0f4e9c8-925a-47f0-8521-b0f7257385f7|52=20160322-06:48:15.754|56=BTCC-PRO-EXCHANGE-SERVER|98=0|108=5000|141=Y|10=101|
8=FIX.4.4|9=123|35=A|34=1|49=BTCC-PRO-EXCHANGE-SERVER|52=20160322-06:48:15.795|56=a0f4e9c8-925a-47f0-8521-b0f7257385f7|98=0|108=5000|141=Y|10=106|
8=FIX.4.4|9=310|35=D|34=2|49=a0f4e9c8-925a-47f0-8521-b0f7257385f7|52=20160322-06:48:15.965|56=BTCC-PRO-EXCHANGE-SERVER|1=1458629289915000:Basic NzQyOTM0NjAtN2Y5Zi00ZmFlLWFjOTAtZjA3NjNjMWYyZGI5OjdlZmYzNzkyMmE5YzhmYWRlYjEzNGM0MjIyNzhlYjQ3OWIxOTlmM2I=|11=2016031714|38=7|40=2|44=2450|54=1|55=XBTCNY|59=0|60=20160322-06:48:11.398|10=034|
8=FIX.4.4|9=282|35=8|34=2|49=BTCC-PRO-EXCHANGE-SERVER|52=20160322-06:48:16.135|56=a0f4e9c8-925a-47f0-8521-b0f7257385f7|6=0|11=2016031714|14=0|17=b8dd8389-ce24-47e7-8aa4-b5a5a4db27d4|32=0|37=4f4050f255424c2991f1ee28c04e002e|39=A|40=2|44=2450|54=1|55=XBTCNY|59=0|60=20160322-06:48:14.525|150=A|151=7|10=068|
8=FIX.4.4|9=282|35=8|34=3|49=BTCC-PRO-EXCHANGE-SERVER|52=20160322-06:48:16.139|56=a0f4e9c8-925a-47f0-8521-b0f7257385f7|6=0|11=2016031714|14=0|17=e17ea433-799e-44b0-b6f1-2bed034cf85c|32=0|37=4f4050f255424c2991f1ee28c04e002e|39=0|40=2|44=2450|54=1|55=XBTCNY|59=0|60=20160322-06:48:14.525|150=0|151=7|10=238|
8=FIX.4.4|9=123|35=A|34=1|49=a0f4e9c8-925a-47f0-8521-b0f7257385f7|52=20160322-06:49:10.885|56=BTCC-PRO-EXCHANGE-SERVER|98=0|108=5000|141=Y|10=102|
8=FIX.4.4|9=123|35=A|34=1|49=BTCC-PRO-EXCHANGE-SERVER|52=20160322-06:49:10.896|56=a0f4e9c8-925a-47f0-8521-b0f7257385f7|98=0|108=5000|141=Y|10=104|
8=FIX.4.4|9=306|35=G|34=2|49=a0f4e9c8-925a-47f0-8521-b0f7257385f7|52=20160322-06:49:11.071|56=BTCC-PRO-EXCHANGE-SERVER|1=1458629344890000:Basic NzQyOTM0NjAtN2Y5Zi00ZmFlLWFjOTAtZjA3NjNjMWYyZGI5OjRjNmQ3ODRlNmQzODJkODRkNGIxZmRlMDU0ZGQyMTc5OGRiNzgzNjQ=|11=2016032204|37=4f4050f255424c2991f1ee28c04e002e|38=8|44=2450|55=XBTCNY|10=130|
8=FIX.4.4|9=282|35=8|34=2|49=BTCC-PRO-EXCHANGE-SERVER|52=20160322-06:49:15.080|56=a0f4e9c8-925a-47f0-8521-b0f7257385f7|6=0|11=2016032204|14=0|17=36a30d9b-c231-4d9e-8fe9-8638e29b9417|32=0|37=4f4050f255424c2991f1ee28c04e002e|39=0|40=2|44=2450|54=1|55=XBTCNY|59=0|60=20160322-06:48:14.525|150=5|151=8|10=111|
8=FIX.4.4|9=123|35=A|34=1|49=a0f4e9c8-925a-47f0-8521-b0f7257385f7|52=20160322-06:49:34.054|56=BTCC-PRO-EXCHANGE-SERVER|98=0|108=5000|141=Y|10=096|
8=FIX.4.4|9=123|35=A|34=1|49=BTCC-PRO-EXCHANGE-SERVER|52=20160322-06:49:34.407|56=a0f4e9c8-925a-47f0-8521-b0f7257385f7|98=0|108=5000|141=Y|10=098|
8=FIX.4.4|9=306|35=G|34=2|49=a0f4e9c8-925a-47f0-8521-b0f7257385f7|52=20160322-06:49:34.513|56=BTCC-PRO-EXCHANGE-SERVER|1=1458629367132000:Basic NzQyOTM0NjAtN2Y5Zi00ZmFlLWFjOTAtZjA3NjNjMWYyZGI5OmI4Y2Y2NzAzMDZhNTE1Y2I4NTNlODlhMjY0NmFiNzYyYTBiMWJlOGQ=|11=2016032204|37=4f4050f255424c2991f1ee28c04e002e|38=8|44=2450|55=XBTCNY|10=172|
8=FIX.4.4|9=179|35=9|34=2|49=BTCC-PRO-EXCHANGE-SERVER|52=20160322-06:49:35.784|56=a0f4e9c8-925a-47f0-8521-b0f7257385f7|11=2016032204|37=4f4050f255424c2991f1ee28c04e002e|39=8|58=Other|102=6|434=2|10=201|
8=FIX.4.4|9=123|35=A|34=1|49=a0f4e9c8-925a-47f0-8521-b0f7257385f7|52=20160322-06:51:13.752|56=BTCC-PRO-EXCHANGE-SERVER|98=0|108=5000|141=Y|10=091|
8=FIX.4.4|9=123|35=A|34=1|49=BTCC-PRO-EXCHANGE-SERVER|52=20160322-06:51:13.772|56=a0f4e9c8-925a-47f0-8521-b0f7257385f7|98=0|108=5000|141=Y|10=093|
8=FIX.4.4|9=311|35=D|34=2|49=a0f4e9c8-925a-47f0-8521-b0f7257385f7|52=20160322-06:51:13.917|56=BTCC-PRO-EXCHANGE-SERVER|1=1458629467910000:Basic NzQyOTM0NjAtN2Y5Zi00ZmFlLWFjOTAtZjA3NjNjMWYyZGI5OjQ2MGM2Y2MzYmZlMDE5MzEzYzQ4OGM4NzRmYmEyODYyNmYyYjJjODg=|11=2016031718|38=10|40=2|44=2460|54=2|55=XBTCNY|59=0|60=20160322-06:51:09.273|10=033|
8=FIX.4.4|9=283|35=8|34=2|49=BTCC-PRO-EXCHANGE-SERVER|52=20160322-06:51:16.230|56=a0f4e9c8-925a-47f0-8521-b0f7257385f7|6=0|11=2016031718|14=0|17=76759eb5-2f8a-40a2-9ee8-f619a69545cc|32=0|37=88d5f63bfb204f449bdce0663d322f9a|39=A|40=2|44=2460|54=2|55=XBTCNY|59=0|60=20160322-06:51:14.423|150=A|151=10|10=181|
8=FIX.4.4|9=293|35=8|34=3|49=BTCC-PRO-EXCHANGE-SERVER|52=20160322-06:51:16.612|56=a0f4e9c8-925a-47f0-8521-b0f7257385f7|6=2460|11=2016031718|14=1|17=3918f5eb-c3e7-458a-8171-40b517b701d4|31=2460|32=1|37=88d5f63bfb204f449bdce0663d322f9a|39=1|40=2|44=2460|54=2|55=XBTCNY|59=0|60=20160322-06:51:14.423|150=F|151=9|10=026|
8=FIX.4.4|9=293|35=8|34=4|49=BTCC-PRO-EXCHANGE-SERVER|52=20160322-06:51:16.864|56=a0f4e9c8-925a-47f0-8521-b0f7257385f7|6=2460|11=2016031718|14=3|17=ac120c33-7e14-4ce0-a831-ac51ab15332d|31=2460|32=2|37=88d5f63bfb204f449bdce0663d322f9a|39=1|40=2|44=2460|54=2|55=XBTCNY|59=0|60=20160322-06:51:14.423|150=F|151=7|10=141|
8=FIX.4.4|9=293|35=8|34=5|49=BTCC-PRO-EXCHANGE-SERVER|52=20160322-06:51:16.865|56=a0f4e9c8-925a-47f0-8521-b0f7257385f7|6=2460|11=2016031718|14=6|17=1584203a-780a-42cf-9fdf-33d0685c1fb8|31=2460|32=3|37=88d5f63bfb204f449bdce0663d322f9a|39=1|40=2|44=2460|54=2|55=XBTCNY|59=0|60=20160322-06:51:14.423|150=F|151=4|10=136|
8=FIX.4.4|9=293|35=8|34=6|49=BTCC-PRO-EXCHANGE-SERVER|52=20160322-06:51:16.868|56=a0f4e9c8-925a-47f0-8521-b0f7257385f7|6=2460|11=2016031718|14=9|17=e6704134-7804-4c00-b884-5c3eddf423f0|31=2460|32=3|37=88d5f63bfb204f449bdce0663d322f9a|39=1|40=2|44=2460|54=2|55=XBTCNY|59=0|60=20160322-06:51:14.423|150=F|151=1|10=038|
8=FIX.4.4|9=294|35=8|34=7|49=BTCC-PRO-EXCHANGE-SERVER|52=20160322-06:51:16.871|56=a0f4e9c8-925a-47f0-8521-b0f7257385f7|6=2460|11=2016031718|14=10|17=8339d6fc-b258-4ded-bc96-a1ba3f5ac93b|31=2460|32=1|37=88d5f63bfb204f449bdce0663d322f9a|39=2|40=2|44=2460|54=2|55=XBTCNY|59=0|60=20160322-06:51:14.423|150=F|151=0|10=162|
8=FIX.4.4|9=123|35=A|34=1|49=a0f4e9c8-925a-47f0-8521-b0f7257385f7|52=20160322-06:56:14.936|56=BTCC-PRO-EXCHANGE-SERVER|98=0|108=5000|141=Y|10=101|
8=FIX.4.4|9=123|35=A|34=1|49=BTCC-PRO-EXCHANGE-SERVER|52=20160322-06:56:14.954|56=a0f4e9c8-925a-47f0-8521-b0f7257385f7|98=0|108=5000|141=Y|10=101|
8=FIX.4.4|9=310|35=D|34=2|49=a0f4e9c8-925a-47f0-8521-b0f7257385f7|52=20160322-06:56:15.199|56=BTCC-PRO-EXCHANGE-SERVER|1=1458629768912000:Basic NzQyOTM0NjAtN2Y5Zi00ZmFlLWFjOTAtZjA3NjNjMWYyZGI5Ojc1Njc4ZDBiOWE0MzgwNjkzM2E2YjQ0Zjc5Mjc2NzE2ZmJkYjJjZmM=|11=2016031718|38=5|40=3|54=2|55=XBTCNY|59=0|60=20160322-06:56:10.428|99=2440|10=218|
8=FIX.4.4|9=234|35=8|34=2|49=BTCC-PRO-EXCHANGE-SERVER|52=20160322-06:56:17.021|56=a0f4e9c8-925a-47f0-8521-b0f7257385f7|6=0|11=2016031718|14=0|17=ecd6d54d-6dfc-4283-852c-0122a49eaa41|37=-1|39=8|44=0|54=2|55=XBTCNY|58=DUPLICATE_ORDER|103=6|150=8|151=0|10=083|
8=FIX.4.4|9=123|35=A|34=1|49=a0f4e9c8-925a-47f0-8521-b0f7257385f7|52=20160322-06:58:02.075|56=BTCC-PRO-EXCHANGE-SERVER|98=0|108=5000|141=Y|10=094|
8=FIX.4.4|9=123|35=A|34=1|49=BTCC-PRO-EXCHANGE-SERVER|52=20160322-06:58:02.104|56=a0f4e9c8-925a-47f0-8521-b0f7257385f7|98=0|108=5000|141=Y|10=087|
8=FIX.4.4|9=310|35=D|34=2|49=a0f4e9c8-925a-47f0-8521-b0f7257385f7|52=20160322-06:58:02.174|56=BTCC-PRO-EXCHANGE-SERVER|1=1458629875971000:Basic NzQyOTM0NjAtN2Y5Zi00ZmFlLWFjOTAtZjA3NjNjMWYyZGI5OjJjMzcwMjAwMTQ5NmVjMmNkNWU1MTdhNTZiYTc0NDUxMjZiNzAzMTY=|11=2016031719|38=5|40=3|54=2|55=XBTCNY|59=0|60=20160322-06:57:57.533|99=2440|10=154|
8=FIX.4.4|9=282|35=8|34=2|49=BTCC-PRO-EXCHANGE-SERVER|52=20160322-06:58:04.643|56=a0f4e9c8-925a-47f0-8521-b0f7257385f7|6=0|11=2016031719|14=0|17=bf2053fe-cb93-4c4a-a9ba-5e5f4f6cfdfc|32=0|37=93c6186005f548599f59b7215a639317|39=A|40=3|54=2|55=XBTCNY|59=0|60=20160322-06:58:02.791|99=2440|150=A|151=5|10=164|
8=FIX.4.4|9=123|35=A|34=1|49=a0f4e9c8-925a-47f0-8521-b0f7257385f7|52=20160322-07:02:09.477|56=BTCC-PRO-EXCHANGE-SERVER|98=0|108=5000|141=Y|10=097|
8=FIX.4.4|9=123|35=A|34=1|49=BTCC-PRO-EXCHANGE-SERVER|52=20160322-07:02:09.776|56=a0f4e9c8-925a-47f0-8521-b0f7257385f7|98=0|108=5000|141=Y|10=099|
8=FIX.4.4|9=306|35=G|34=2|49=a0f4e9c8-925a-47f0-8521-b0f7257385f7|52=20160322-07:02:09.851|56=BTCC-PRO-EXCHANGE-SERVER|1=1458630035635000:Basic NzQyOTM0NjAtN2Y5Zi00ZmFlLWFjOTAtZjA3NjNjMWYyZGI5OmEyNWQ3YjJkMzRlOWM4YjFhMjQzZDE1Yzc2NDc1OTc0NTUyYWIxNmM=|11=2016032205|37=93c6186005f548599f59b7215a639317|38=8|44=2441|55=XBTCNY|10=157|
8=FIX.4.4|9=282|35=8|34=2|49=BTCC-PRO-EXCHANGE-SERVER|52=20160322-07:02:11.674|56=a0f4e9c8-925a-47f0-8521-b0f7257385f7|6=0|11=2016032205|14=0|17=c697aecc-347e-4079-b662-bc2b58d27f5e|32=0|37=93c6186005f548599f59b7215a639317|39=A|40=3|54=2|55=XBTCNY|59=0|60=20160322-06:58:02.791|99=2441|150=5|151=8|10=120|
8=FIX.4.4|9=123|35=A|34=1|49=a0f4e9c8-925a-47f0-8521-b0f7257385f7|52=20160322-07:51:24.288|56=BTCC-PRO-EXCHANGE-SERVER|98=0|108=5000|141=Y|10=098|
8=FIX.4.4|9=123|35=A|34=1|49=BTCC-PRO-EXCHANGE-SERVER|52=20160322-07:51:24.319|56=a0f4e9c8-925a-47f0-8521-b0f7257385f7|98=0|108=5000|141=Y|10=093|
8=FIX.4.4|9=310|35=D|34=2|49=a0f4e9c8-925a-47f0-8521-b0f7257385f7|52=20160322-07:51:24.381|56=BTCC-PRO-EXCHANGE-SERVER|1=1458633079319000:Basic NzQyOTM0NjAtN2Y5Zi00ZmFlLWFjOTAtZjA3NjNjMWYyZGI5OjlkNjg0MjE1NTdiYzhiZmE4Yzc4NTNhYWJkMmMyN2RmMzk4Y2Q1MGY=|11=2016031720|38=6|40=2|44=2451|54=2|55=XBTCNY|59=0|60=20160322-07:51:20.202|10=229|
8=FIX.4.4|9=282|35=8|34=2|49=BTCC-PRO-EXCHANGE-SERVER|52=20160322-07:51:28.134|56=a0f4e9c8-925a-47f0-8521-b0f7257385f7|6=0|11=2016031720|14=0|17=de6ef356-8a31-4380-942e-c9dd1940bccf|32=0|37=40d8140e80194cb68737594090ba56a8|39=A|40=2|44=2451|54=2|55=XBTCNY|59=0|60=20160322-07:51:26.453|150=A|151=6|10=188|
8=FIX.4.4|9=293|35=8|34=3|49=BTCC-PRO-EXCHANGE-SERVER|52=20160322-07:51:28.495|56=a0f4e9c8-925a-47f0-8521-b0f7257385f7|6=2451|11=2016031720|14=6|17=9e2a4511-779c-49e8-8ea9-28282d9226e3|31=2451|32=6|37=40d8140e80194cb68737594090ba56a8|39=2|40=2|44=2451|54=2|55=XBTCNY|59=0|60=20160322-07:51:26.453|150=F|151=0|10=243|
8=FIX.4.4|9=293|35=8|34=4|49=BTCC-PRO-EXCHANGE-SERVER|52=20160322-07:52:01.464|56=a0f4e9c8-925a-47f0-8521-b0f7257385f7|6=2451|11=2016031720|14=6|17=72c8a7b5-938c-41a6-82c0-6b0f53885737|31=2451|32=6|37=40d8140e80194cb68737594090ba56a8|39=2|40=2|44=2451|54=2|55=XBTCNY|59=0|60=20160322-07:51:26.453|150=F|151=0|10=219|
8=FIX.4.4|9=123|35=A|34=1|49=a0f4e9c8-925a-47f0-8521-b0f7257385f7|52=20160322-07:52:48.042|56=BTCC-PRO-EXCHANGE-SERVER|98=0|108=5000|141=Y|10=093|
8=FIX.4.4|9=123|35=A|34=1|49=BTCC-PRO-EXCHANGE-SERVER|52=20160322-07:52:48.045|56=a0f4e9c8-925a-47f0-8521-b0f7257385f7|98=0|108=5000|141=Y|10=096|
8=FIX.4.4|9=302|35=D|34=2|49=a0f4e9c8-925a-47f0-8521-b0f7257385f7|52=20160322-07:52:48.111|56=BTCC-PRO-EXCHANGE-SERVER|1=1458633163292000:Basic NzQyOTM0NjAtN2Y5Zi00ZmFlLWFjOTAtZjA3NjNjMWYyZGI5OjIxOWM0ODUxZTAzMjc2YWY0YzIxNjQzZDZkOGZkYmViZTdhMmFkZTM=|11=2016031721|38=8|40=1|54=2|55=XBTCNY|59=0|60=20160322-07:52:44.155|10=252|
8=FIX.4.4|9=269|35=8|34=2|49=BTCC-PRO-EXCHANGE-SERVER|52=20160322-07:52:48.912|56=a0f4e9c8-925a-47f0-8521-b0f7257385f7|6=0|11=2016031721|14=0|17=895dca16-80e4-4043-a379-024e8bc575fc|37=-1|39=8|44=0|54=2|55=XBTCNY|58=Order Cancelled Because It Will Execute SelfOrder|103=99|150=8|151=0|10=065|
8=FIX.4.4|9=123|35=A|34=1|49=a0f4e9c8-925a-47f0-8521-b0f7257385f7|52=20160322-07:54:08.758|56=BTCC-PRO-EXCHANGE-SERVER|98=0|108=5000|141=Y|10=105|
8=FIX.4.4|9=123|35=A|34=1|49=BTCC-PRO-EXCHANGE-SERVER|52=20160322-07:54:09.092|56=a0f4e9c8-925a-47f0-8521-b0f7257385f7|98=0|108=5000|141=Y|10=097|
8=FIX.4.4|9=302|35=D|34=2|49=a0f4e9c8-925a-47f0-8521-b0f7257385f7|52=20160322-07:54:09.175|56=BTCC-PRO-EXCHANGE-SERVER|1=1458633239834000:Basic NzQyOTM0NjAtN2Y5Zi00ZmFlLWFjOTAtZjA3NjNjMWYyZGI5OjNlNzQ1ZDc0NzU3NDRhZDNiMGQ3NWViYzFiNGQ4YjY3MTlhNDMwYjY=|11=2016031721|38=1|40=1|54=2|55=XBTCNY|59=0|60=20160322-07:54:02.013|10=001|
8=FIX.4.4|9=274|35=8|34=2|49=BTCC-PRO-EXCHANGE-SERVER|52=20160322-07:54:09.354|56=a0f4e9c8-925a-47f0-8521-b0f7257385f7|6=0|11=2016031721|14=0|17=19a66ca7-955c-4f70-ba80-d87023dc9b7c|32=0|37=a0c114cd86874ee2988983f8c98eb900|39=A|40=1|54=2|55=XBTCNY|59=0|60=20160322-07:54:07.668|150=A|151=1|10=205|
8=FIX.4.4|9=285|35=8|34=3|49=BTCC-PRO-EXCHANGE-SERVER|52=20160322-07:54:09.367|56=a0f4e9c8-925a-47f0-8521-b0f7257385f7|6=2352|11=2016031721|14=1|17=f5d4ce4d-0fdc-4a4b-a5dc-73e6634a8b41|31=2352|32=1|37=a0c114cd86874ee2988983f8c98eb900|39=2|40=1|54=2|55=XBTCNY|59=0|60=20160322-07:54:07.668|150=F|151=0|10=135|
8=FIX.4.4|9=123|35=A|34=1|49=a0f4e9c8-925a-47f0-8521-b0f7257385f7|52=20160323-09:00:13.320|56=BTCC-PRO-EXCHANGE-SERVER|98=0|108=5000|141=Y|10=080|
8=FIX.4.4|9=123|35=A|34=1|49=BTCC-PRO-EXCHANGE-SERVER|52=20160323-09:00:13.404|56=a0f4e9c8-925a-47f0-8521-b0f7257385f7|98=0|108=5000|141=Y|10=083|
8=FIX.4.4|9=160|35=V|34=2|49=a0f4e9c8-925a-47f0-8521-b0f7257385f7|52=20160323-09:00:13.423|56=BTCC-PRO-EXCHANGE-SERVER|262=req114|263=1|264=5|146=1|55=XBTCNY|267=2|269=0|269=1|10=074|
8=FIX.4.4|9=405|35=W|34=2|49=BTCC-PRO-EXCHANGE-SERVER|52=20160323-09:00:13.461|56=a0f4e9c8-925a-47f0-8521-b0f7257385f7|55=XBTCNY|262=req114|268=12|269=0|270=2742.2|271=11|269=0|270=2742|271=95|269=0|270=2740.7|271=1|269=0|270=2740|271=50|269=0|270=2739|271=52|269=0|270=2738.5|271=15|269=1|270=2743.9|271=4|269=1|270=2744|271=23|269=1|270=2744.9|271=20|269=1|270=2745|271=10|269=1|270=2747|271=17|269=1|270=2747.1|271=17|10=174|
8=FIX.4.4|9=190|35=X|34=3|49=BTCC-PRO-EXCHANGE-SERVER|52=20160323-09:00:15.723|56=a0f4e9c8-925a-47f0-8521-b0f7257385f7|262=req114|268=1|279=2|269=0|55=XBTCNY|270=2740.7|271=-1|272=20160323|273=09:00:15.723|10=036|
8=FIX.4.4|9=189|35=X|34=4|49=BTCC-PRO-EXCHANGE-SERVER|52=20160323-09:00:16.217|56=a0f4e9c8-925a-47f0-8521-b0f7257385f7|262=req114|268=1|279=0|269=0|55=XBTCNY|270=2742.4|271=3|272=20160323|273=09:00:16.216|10=252|
8=FIX.4.4|9=187|35=X|34=5|49=BTCC-PRO-EXCHANGE-SERVER|52=20160323-09:00:16.233|56=a0f4e9c8-925a-47f0-8521-b0f7257385f7|262=req114|268=1|279=1|269=1|55=XBTCNY|270=2773|271=3|272=20160323|273=09:00:16.233|10=156|
8=FIX.4.4|9=189|35=X|34=6|49=BTCC-PRO-EXCHANGE-SERVER|52=20160323-09:00:16.477|56=a0f4e9c8-925a-47f0-8521-b0f7257385f7|262=req114|268=1|279=0|269=0|55=XBTCNY|270=2740.7|271=1|272=20160323|273=09:00:16.477|10=014|
8=FIX.4.4|9=190|35=X|34=7|49=BTCC-PRO-EXCHANGE-SERVER|52=20160323-09:00:20.613|56=a0f4e9c8-925a-47f0-8521-b0f7257385f7|262=req114|268=1|279=2|269=0|55=XBTCNY|270=2740.7|271=-1|272=20160323|273=09:00:20.613|10=028|
8=FIX.4.4|9=190|35=X|34=8|49=BTCC-PRO-EXCHANGE-SERVER|52=20160323-09:00:20.736|56=a0f4e9c8-925a-47f0-8521-b0f7257385f7|262=req114|268=1|279=1|269=1|55=XBTCNY|270=2747.8|271=-1|272=20160323|273=09:00:20.736|10=049|
8=FIX.4.4|9=189|35=X|34=9|49=BTCC-PRO-EXCHANGE-SERVER|52=20160323-09:00:20.883|56=a0f4e9c8-925a-47f0-8521-b0f7257385f7|262=req114|268=1|279=0|269=0|55=XBTCNY|270=2740.7|271=1|272=20160323|273=09:00:20.883|10=009|
8=FIX.4.4|9=190|35=X|34=10|49=BTCC-PRO-EXCHANGE-SERVER|52=20160323-09:00:20.885|56=a0f4e9c8-925a-47f0-8521-b0f7257385f7|262=req114|268=1|279=1|269=1|55=XBTCNY|270=2747.8|271=1|272=20160323|273=09:00:20.884|10=054|
8=FIX.4.4|9=191|35=X|34=11|49=BTCC-PRO-EXCHANGE-SERVER|52=20160323-09:00:24.541|56=a0f4e9c8-925a-47f0-8521-b0f7257385f7|262=req114|268=1|279=0|269=0|55=XBTCNY|270=2740.5|271=15|272=20160323|273=09:00:24.541|10=084|
8=FIX.4.4|9=192|35=X|34=12|49=BTCC-PRO-EXCHANGE-SERVER|52=20160323-09:00:24.542|56=a0f4e9c8-925a-47f0-8521-b0f7257385f7|262=req114|268=1|279=2|269=0|55=XBTCNY|270=2680.4|271=-18|272=20160323|273=09:00:24.542|10=140|
8=FIX.4.4|9=191|35=X|34=13|49=BTCC-PRO-EXCHANGE-SERVER|52=20160323-09:00:24.991|56=a0f4e9c8-925a-47f0-8521-b0f7257385f7|262=req114|268=1|279=2|269=0|55=XBTCNY|270=2740.7|271=-1|272=20160323|273=09:00:24.991|10=100|
8=FIX.4.4|9=190|35=X|34=14|49=BTCC-PRO-EXCHANGE-SERVER|52=20160323-09:00:25.295|56=a0f4e9c8-925a-47f0-8521-b0f7257385f7|262=req114|268=1|279=0|269=0|55=XBTCNY|270=2740.7|271=1|272=20160323|273=09:00:25.295|10=049|
8=FIX.4.4|9=191|35=X|34=15|49=BTCC-PRO-EXCHANGE-SERVER|52=20160323-09:00:29.428|56=a0f4e9c8-925a-47f0-8521-b0f7257385f7|262=req114|268=1|279=2|269=0|55=XBTCNY|270=2740.7|271=-1|272=20160323|273=09:00:29.428|10=102|
8=FIX.4.4|9=189|35=X|34=16|49=BTCC-PRO-EXCHANGE-SERVER|52=20160323-09:00:29.756|56=a0f4e9c8-925a-47f0-8521-b0f7257385f7|262=req114|268=1|279=1|269=1|55=XBTCNY|270=2773|271=-3|272=20160323|273=09:00:29.756|10=025|
8=FIX.4.4|9=191|35=X|34=17|49=BTCC-PRO-EXCHANGE-SERVER|52=20160323-09:00:29.757|56=a0f4e9c8-925a-47f0-8521-b0f7257385f7|262=req114|268=1|279=2|269=0|55=XBTCNY|270=2742.4|271=-3|272=20160323|273=09:00:29.757|10=115|
8=FIX.4.4|9=191|35=X|34=18|49=BTCC-PRO-EXCHANGE-SERVER|52=20160323-09:00:29.916|56=a0f4e9c8-925a-47f0-8521-b0f7257385f7|262=req114|268=1|279=1|269=1|55=XBTCNY|270=2747.8|271=-1|272=20160323|273=09:00:29.916|10=117|
8=FIX.4.4|9=190|35=X|34=19|49=BTCC-PRO-EXCHANGE-SERVER|52=20160323-09:00:30.067|56=a0f4e9c8-925a-47f0-8521-b0f7257385f7|262=req114|268=1|279=0|269=0|55=XBTCNY|270=2740.7|271=1|272=20160323|273=09:00:30.067|10=040|
8=FIX.4.4|9=190|35=X|34=20|49=BTCC-PRO-EXCHANGE-SERVER|52=20160323-09:00:30.218|56=a0f4e9c8-925a-47f0-8521-b0f7257385f7|262=req114|268=1|279=1|269=1|55=XBTCNY|270=2747.8|271=1|272=20160323|273=09:00:30.218|10=038|
8=FIX.4.4|9=191|35=X|34=21|49=BTCC-PRO-EXCHANGE-SERVER|52=20160323-09:00:34.344|56=a0f4e9c8-925a-47f0-8521-b0f7257385f7|262=req114|268=1|279=2|269=0|55=XBTCNY|270=2740.7|271=-1|272=20160323|273=09:00:34.344|10=085|
8=FIX.4.4|9=190|35=X|34=22|49=BTCC-PRO-EXCHANGE-SERVER|52=20160323-09:00:34.617|56=a0f4e9c8-925a-47f0-8521-b0f7257385f7|262=req114|268=1|279=0|269=0|55=XBTCNY|270=2740.7|271=1|272=20160323|273=09:00:34.617|10=044|
8=FIX.4.4|9=190|35=X|34=23|49=BTCC-PRO-EXCHANGE-SERVER|52=20160323-09:00:34.724|56=a0f4e9c8-925a-47f0-8521-b0f7257385f7|262=req114|268=1|279=0|269=0|55=XBTCNY|270=2742.3|271=3|272=20160323|273=09:00:34.724|10=043|
8=FIX.4.4|9=188|35=X|34=24|49=BTCC-PRO-EXCHANGE-SERVER|52=20160323-09:00:34.757|56=a0f4e9c8-925a-47f0-8521-b0f7257385f7|262=req114|268=1|279=1|269=1|55=XBTCNY|270=2773|271=3|272=20160323|273=09:00:34.757|10=228|
8=FIX.4.4|9=191|35=X|34=25|49=BTCC-PRO-EXCHANGE-SERVER|52=20160323-09:00:38.763|56=a0f4e9c8-925a-47f0-8521-b0f7257385f7|262=req114|268=1|279=2|269=0|55=XBTCNY|270=2740.7|271=-1|272=20160323|273=09:00:38.763|10=107|
8=FIX.4.4|9=191|35=X|34=26|49=BTCC-PRO-EXCHANGE-SERVER|52=20160323-09:00:38.913|56=a0f4e9c8-925a-47f0-8521-b0f7257385f7|262=req114|268=1|279=1|269=1|55=XBTCNY|270=2747.8|271=-1|272=20160323|273=09:00:38.913|10=110|
8=FIX.4.4|9=192|35=X|34=27|49=BTCC-PRO-EXCHANGE-SERVER|52=20160323-09:00:38.998|56=a0f4e9c8-925a-47f0-8521-b0f7257385f7|262=req114|268=1|279=2|269=1|55=XBTCNY|270=2747.1|271=-17|272=20160323|273=09:00:38.998|10=187|
8=FIX.4.4|9=190|35=X|34=28|49=BTCC-PRO-EXCHANGE-SERVER|52=20160323-09:00:39.066|56=a0f4e9c8-925a-47f0-8521-b0f7257385f7|262=req114|268=1|279=0|269=0|55=XBTCNY|270=2740.7|271=1|272=20160323|273=09:00:39.066|10=056|
8=FIX.4.4|9=190|35=X|34=29|49=BTCC-PRO-EXCHANGE-SERVER|52=20160323-09:00:39.217|56=a0f4e9c8-925a-47f0-8521-b0f7257385f7|262=req114|268=1|279=1|269=1|55=XBTCNY|270=2747.8|271=1|272=20160323|273=09:00:39.217|10=063|
8=FIX.4.4|9=189|35=X|34=30|49=BTCC-PRO-EXCHANGE-SERVER|52=20160323-09:00:39.614|56=a0f4e9c8-925a-47f0-8521-b0f7257385f7|262=req114|268=1|279=0|269=1|55=XBTCNY|270=2809|271=16|272=20160323|273=09:00:39.614|10=015|
8=FIX.4.4|9=191|35=X|34=31|49=BTCC-PRO-EXCHANGE-SERVER|52=20160323-09:00:43.722|56=a0f4e9c8-925a-47f0-8521-b0f7257385f7|262=req114|268=1|279=2|269=0|55=XBTCNY|270=2740.7|271=-1|272=20160323|273=09:00:43.722|10=086|
8=FIX.4.4|9=190|35=X|34=32|49=BTCC-PRO-EXCHANGE-SERVER|52=20160323-09:00:43.999|56=a0f4e9c8-925a-47f0-8521-b0f7257385f7|262=req114|268=1|279=0|269=0|55=XBTCNY|270=2742.1|271=1|272=20160323|273=09:00:43.999|10=067|
8=FIX.4.4|9=188|35=X|34=33|49=BTCC-PRO-EXCHANGE-SERVER|52=20160323-09:00:47.629|56=a0f4e9c8-925a-47f0-8521-b0f7257385f7|262=req114|268=1|279=1|269=0|55=XBTCNY|270=2640|271=1|272=20160323|273=09:00:47.629|10=222|
8=FIX.4.4|9=191|35=X|34=34|49=BTCC-PRO-EXCHANGE-SERVER|52=20160323-09:00:47.959|56=a0f4e9c8-925a-47f0-8521-b0f7257385f7|262=req114|268=1|279=2|269=0|55=XBTCNY|270=2742.3|271=-3|272=20160323|273=09:00:47.959|10=121|
8=FIX.4.4|9=189|35=X|34=35|49=BTCC-PRO-EXCHANGE-SERVER|52=20160323-09:00:47.989|56=a0f4e9c8-925a-47f0-8521-b0f7257385f7|262=req114|268=1|279=1|269=1|55=XBTCNY|270=2773|271=-3|272=20160323|273=09:00:47.989|10=042|
8=FIX.4.4|9=191|35=X|34=36|49=BTCC-PRO-EXCHANGE-SERVER|52=20160323-09:00:48.491|56=a0f4e9c8-925a-47f0-8521-b0f7257385f7|262=req114|268=1|279=2|269=0|55=XBTCNY|270=2742.1|271=-1|272=20160323|273=09:00:48.490|10=102|
8=FIX.4.4|9=191|35=X|34=37|49=BTCC-PRO-EXCHANGE-SERVER|52=20160323-09:00:48.642|56=a0f4e9c8-925a-47f0-8521-b0f7257385f7|262=req114|268=1|279=1|269=1|55=XBTCNY|270=2747.8|271=-1|272=20160323|273=09:00:48.642|10=112|
8=FIX.4.4|9=190|35=X|34=38|49=BTCC-PRO-EXCHANGE-SERVER|52=20160323-09:00:48.795|56=a0f4e9c8-925a-47f0-8521-b0f7257385f7|262=req114|268=1|279=0|269=0|55=XBTCNY|270=2742.1|271=1|272=20160323|273=09:00:48.795|10=071|
8=FIX.4.4|9=190|35=X|34=39|49=BTCC-PRO-EXCHANGE-SERVER|52=20160323-09:00:48.945|56=a0f4e9c8-925a-47f0-8521-b0f7257385f7|262=req114|268=1|279=1|269=1|55=XBTCNY|270=2747.9|271=1|272=20160323|273=09:00:48.945|10=081|
8=FIX.4.4|9=191|35=X|34=40|49=BTCC-PRO-EXCHANGE-SERVER|52=20160323-09:00:48.982|56=a0f4e9c8-925a-47f0-8521-b0f7257385f7|262=req114|268=1|279=1|269=1|55=XBTCNY|270=2748|271=-190|272=20160323|273=09:00:48.982|10=124|
8=FIX.4.4|9=191|35=X|34=41|49=BTCC-PRO-EXCHANGE-SERVER|52=20160323-09:00:52.227|56=a0f4e9c8-925a-47f0-8521-b0f7257385f7|262=req114|268=1|279=1|269=1|55=XBTCNY|270=2749|271=-105|272=20160323|273=09:00:52.227|10=096|
8=FIX.4.4|9=190|35=X|34=42|49=BTCC-PRO-EXCHANGE-SERVER|52=20160323-09:00:52.929|56=a0f4e9c8-925a-47f0-8521-b0f7257385f7|262=req114|268=1|279=0|269=0|55=XBTCNY|270=2742.3|271=3|272=20160323|273=09:00:52.929|10=058|
8=FIX.4.4|9=190|35=X|34=43|49=BTCC-PRO-EXCHANGE-SERVER|52=20160323-09:00:52.952|56=a0f4e9c8-925a-47f0-8521-b0f7257385f7|262=req114|268=1|279=1|269=1|55=XBTCNY|270=2773.3|271=3|272=20160323|273=09:00:52.952|10=057|
8=FIX.4.4|9=191|35=X|34=44|49=BTCC-PRO-EXCHANGE-SERVER|52=20160323-09:00:53.083|56=a0f4e9c8-925a-47f0-8521-b0f7257385f7|262=req114|268=1|279=2|269=0|55=XBTCNY|270=2742.1|271=-1|272=20160323|273=09:00:53.083|10=088|
8=FIX.4.4|9=190|35=X|34=45|49=BTCC-PRO-EXCHANGE-SERVER|52=20160323-09:00:53.325|56=a0f4e9c8-925a-47f0-8521-b0f7257385f7|262=req114|268=1|279=0|269=0|55=XBTCNY|270=2742.1|271=1|272=20160323|273=09:00:53.325|10=039|
8=FIX.4.4|9=191|35=X|34=46|49=BTCC-PRO-EXCHANGE-SERVER|52=20160323-09:00:57.505|56=a0f4e9c8-925a-47f0-8521-b0f7257385f7|262=req114|268=1|279=2|269=0|55=XBTCNY|270=2742.1|271=-1|272=20160323|273=09:00:57.505|10=096|
8=FIX.4.4|9=191|35=X|34=47|49=BTCC-PRO-EXCHANGE-SERVER|52=20160323-09:00:57.655|56=a0f4e9c8-925a-47f0-8521-b0f7257385f7|262=req114|268=1|279=1|269=1|55=XBTCNY|270=2747.9|271=-1|272=20160323|273=09:00:57.655|10=122|
8=FIX.4.4|9=190|35=X|34=48|49=BTCC-PRO-EXCHANGE-SERVER|52=20160323-09:00:57.811|56=a0f4e9c8-925a-47f0-8521-b0f7257385f7|262=req114|268=1|279=0|269=0|55=XBTCNY|270=2742.1|271=1|272=20160323|273=09:00:57.811|10=050|
8=FIX.4.4|9=190|35=X|34=49|49=BTCC-PRO-EXCHANGE-SERVER|52=20160323-09:00:57.957|56=a0f4e9c8-925a-47f0-8521-b0f7257385f7|262=req114|268=1|279=1|269=1|55=XBTCNY|270=2747.9|271=1|272=20160323|273=09:00:57.957|10=088|
8=FIX.4.4|9=123|35=A|34=1|49=a0f4e9c8-925a-47f0-8521-b0f7257385f7|52=20160323-09:00:59.263|56=BTCC-PRO-EXCHANGE-SERVER|98=0|108=5000|141=Y|10=096|
8=FIX.4.4|9=123|35=A|34=1|49=a0f4e9c8-925a-47f0-8521-b0f7257385f7|52=20160323-09:01:10.267|56=BTCC-PRO-EXCHANGE-SERVER|98=0|108=5000|141=Y|10=088|
8=FIX.4.4|9=123|35=A|34=1|49=a0f4e9c8-925a-47f0-8521-b0f7257385f7|52=20160323-09:07:31.145|56=BTCC-PRO-EXCHANGE-SERVER|98=0|108=5000|141=Y|10=092|
8=FIX.4.4|9=123|35=A|34=1|49=BTCC-PRO-EXCHANGE-SERVER|52=20160323-09:07:31.194|56=a0f4e9c8-925a-47f0-8521-b0f7257385f7|98=0|108=5000|141=Y|10=096|
8=FIX.4.4|9=310|35=D|34=2|49=a0f4e9c8-925a-47f0-8521-b0f7257385f7|52=20160323-09:07:31.205|56=BTCC-PRO-EXCHANGE-SERVER|1=1458724044746000:Basic YWI2ODlkM2ItYWM2OC00MjlmLTgxZTgtNTM4YjhjNDI4NDI5OjQ1NDE1NjNjN2U2ODI3NjkwNTg1ZTg1NjcyNmExZjNiMmQxNTg5NTI=|11=2016031721|38=1|40=2|44=3000|54=2|55=XBTCNY|59=0|60=20160323-09:07:25.956|10=012|
8=FIX.4.4|9=282|35=8|34=2|49=BTCC-PRO-EXCHANGE-SERVER|52=20160323-09:07:31.527|56=a0f4e9c8-925a-47f0-8521-b0f7257385f7|6=0|11=2016031721|14=0|17=3f11e6e4-6d68-44e0-a372-f4831ba00215|32=0|37=5cced44bba184b30b77900ef236602cd|39=A|40=2|44=3000|54=2|55=XBTCNY|59=0|60=20160323-09:07:21.350|150=A|151=1|10=227|
8=FIX.4.4|9=282|35=8|34=3|49=BTCC-PRO-EXCHANGE-SERVER|52=20160323-09:07:31.528|56=a0f4e9c8-925a-47f0-8521-b0f7257385f7|6=0|11=2016031721|14=0|17=1d918f5a-edc9-4686-9891-f23354551155|32=0|37=5cced44bba184b30b77900ef236602cd|39=0|40=2|44=3000|54=2|55=XBTCNY|59=0|60=20160323-09:07:21.350|150=0|151=1|10=137|
8=FIX.4.4|9=123|35=A|34=1|49=a0f4e9c8-925a-47f0-8521-b0f7257385f7|52=20160323-09:25:19.632|56=BTCC-PRO-EXCHANGE-SERVER|98=0|108=5000|141=Y|10=099|
8=FIX.4.4|9=123|35=A|34=1|49=BTCC-PRO-EXCHANGE-SERVER|52=20160323-09:25:19.679|56=a0f4e9c8-925a-47f0-8521-b0f7257385f7|98=0|108=5000|141=Y|10=110|
8=FIX.4.4|9=310|35=D|34=2|49=a0f4e9c8-925a-47f0-8521-b0f7257385f7|52=20160323-09:25:19.694|56=BTCC-PRO-EXCHANGE-SERVER|1=1458725116032000:Basic YWI2ODlkM2ItYWM2OC00MjlmLTgxZTgtNTM4YjhjNDI4NDI5OmYwMGY3YjQzYzY1Nzg5OWM1Mjg2MWU0ZjM2OWFhMmUwMTk4NjZjMDg=|11=2016031722|38=1|40=2|44=3000|54=2|55=XBTCNY|59=0|60=20160323-09:25:16.589|10=105|
8=FIX.4.4|9=282|35=8|34=2|49=BTCC-PRO-EXCHANGE-SERVER|52=20160323-09:25:20.258|56=a0f4e9c8-925a-47f0-8521-b0f7257385f7|6=0|11=2016031722|14=0|17=dcc34bdf-537e-4282-ba7d-a61b02146635|32=0|37=9091b178303c4c3bbb4df9bc44298acd|39=A|40=2|44=3000|54=2|55=XBTCNY|59=0|60=20160323-09:25:10.038|150=A|151=1|10=130|
8=FIX.4.4|9=282|35=8|34=3|49=BTCC-PRO-EXCHANGE-SERVER|52=20160323-09:25:20.259|56=a0f4e9c8-925a-47f0-8521-b0f7257385f7|6=0|11=2016031722|14=0|17=ce598628-69d4-4e24-92cc-261eb7b59ec9|32=0|37=9091b178303c4c3bbb4df9bc44298acd|39=0|40=2|44=3000|54=2|55=XBTCNY|59=0|60=20160323-09:25:10.038|150=0|151=1|10=091|
8=FIX.4.4|9=123|35=A|34=1|49=a0f4e9c8-925a-47f0-8521-b0f7257385f7|52=20160323-09:25:53.803|56=BTCC-PRO-EXCHANGE-SERVER|98=0|108=5000|141=Y|10=097|
8=FIX.4.4|9=123|35=A|34=1|49=BTCC-PRO-EXCHANGE-SERVER|52=20160323-09:25:53.892|56=a0f4e9c8-925a-47f0-8521-b0f7257385f7|98=0|108=5000|141=Y|10=105|
8=FIX.4.4|9=306|35=G|34=2|49=a0f4e9c8-925a-47f0-8521-b0f7257385f7|52=20160323-09:25:53.909|56=BTCC-PRO-EXCHANGE-SERVER|1=1458725150248000:Basic YWI2ODlkM2ItYWM2OC00MjlmLTgxZTgtNTM4YjhjNDI4NDI5OjUzYTc2YmNjNjZiZWU0YmE3YzU5N2I3ZGRhNGQyMWQ5MzY5MzRkZGM=|11=2016032205|37=9091b178303c4c3bbb4df9bc44298acd|38=1|44=2999|55=XBTCNY|10=137|
8=FIX.4.4|9=282|35=8|34=2|49=BTCC-PRO-EXCHANGE-SERVER|52=20160323-09:25:54.463|56=a0f4e9c8-925a-47f0-8521-b0f7257385f7|6=0|11=2016032205|14=0|17=6fff3ab6-f51f-4cbc-b9ad-94c1dd89322c|32=0|37=9091b178303c4c3bbb4df9bc44298acd|39=0|40=2|44=2999|54=2|55=XBTCNY|59=0|60=20160323-09:25:10.038|150=5|151=1|10=131|
8=FIX.4.4|9=123|35=A|34=1|49=a0f4e9c8-925a-47f0-8521-b0f7257385f7|52=20160323-09:26:17.120|56=BTCC-PRO-EXCHANGE-SERVER|98=0|108=5000|141=Y|10=090|
8=FIX.4.4|9=123|35=A|34=1|49=BTCC-PRO-EXCHANGE-SERVER|52=20160323-09:26:17.202|56=a0f4e9c8-925a-47f0-8521-b0f7257385f7|98=0|108=5000|141=Y|10=091|
8=FIX.4.4|9=305|35=G|34=2|49=a0f4e9c8-925a-47f0-8521-b0f7257385f7|52=20160323-09:26:18.129|56=BTCC-PRO-EXCHANGE-SERVER|1=1458725173783000:Basic YWI2ODlkM2ItYWM2OC00MjlmLTgxZTgtNTM4YjhjNDI4NDI5OmE4NGJkNTQ2ZjJlOTFhMGYwMzU1NzBiOTJiMmZiNGQ0OTQxMDViYzY=|11=2016032206|37=091b178303c4c3bbb4df9bc44298acd|38=1|44=2999|55=XBTCNY|10=126|
8=FIX.4.4|9=185|35=9|34=2|49=BTCC-PRO-EXCHANGE-SERVER|52=20160323-09:26:18.524|56=a0f4e9c8-925a-47f0-8521-b0f7257385f7|11=2016032206|37=091b178303c4c3bbb4df9bc44298acd|39=8|58=UnknownOrder|102=1|434=2|10=052|
8=FIX.4.4|9=123|35=A|34=1|49=a0f4e9c8-925a-47f0-8521-b0f7257385f7|52=20160323-09:35:22.783|56=BTCC-PRO-EXCHANGE-SERVER|98=0|108=5000|141=Y|10=101|
8=FIX.4.4|9=123|35=A|34=1|49=BTCC-PRO-EXCHANGE-SERVER|52=20160323-09:35:22.827|56=a0f4e9c8-925a-47f0-8521-b0f7257385f7|98=0|108=5000|141=Y|10=100|
8=FIX.4.4|9=306|35=G|34=2|49=a0f4e9c8-925a-47f0-8521-b0f7257385f7|52=20160323-09:35:22.840|56=BTCC-PRO-EXCHANGE-SERVER|1=1458725718606000:Basic YWI2ODlkM2ItYWM2OC00MjlmLTgxZTgtNTM4YjhjNDI4NDI5OjA1ODhjZjkzZjVjNDRiNmNkMDM0YzY5NGJjZTM3M2M3ZWY2ZDA3NzU=|11=2016032207|37=0091b178303c4c3bbb4df9bc44298acd|38=1|44=2998|55=XBTCNY|10=019|
8=FIX.4.4|9=186|35=9|34=2|49=BTCC-PRO-EXCHANGE-SERVER|52=20160323-09:35:23.360|56=a0f4e9c8-925a-47f0-8521-b0f7257385f7|11=2016032207|37=0091b178303c4c3bbb4df9bc44298acd|39=8|58=UnknownOrder|102=1|434=2|10=096|
8=FIX.4.4|9=123|35=A|34=1|49=a0f4e9c8-925a-47f0-8521-b0f7257385f7|52=20160323-09:35:50.486|56=BTCC-PRO-EXCHANGE-SERVER|98=0|108=5000|141=Y|10=102|
8=FIX.4.4|9=123|35=A|34=1|49=BTCC-PRO-EXCHANGE-SERVER|52=20160323-09:35:50.538|56=a0f4e9c8-925a-47f0-8521-b0f7257385f7|98=0|108=5000|141=Y|10=100|
8=FIX.4.4|9=310|35=D|34=2|49=a0f4e9c8-925a-47f0-8521-b0f7257385f7|52=20160323-09:35:50.548|56=BTCC-PRO-EXCHANGE-SERVER|1=1458725747137000:Basic YWI2ODlkM2ItYWM2OC00MjlmLTgxZTgtNTM4YjhjNDI4NDI5OjllYmQyYWQ4OTNiYzZjMGNiYWE2YTU4ZjdmYWQyMzQ3M2I4NDBkM2Q=|11=2016031723|38=1|40=2|44=3000|54=2|55=XBTCNY|59=0|60=20160323-09:35:47.652|10=091|
8=FIX.4.4|9=282|35=8|34=2|49=BTCC-PRO-EXCHANGE-SERVER|52=20160323-09:35:50.925|56=a0f4e9c8-925a-47f0-8521-b0f7257385f7|6=0|11=2016031723|14=0|17=b2069ae9-dae7-42f5-8145-b5fd9ed8bfb7|32=0|37=d71f75b633834cca874d3e379609f5c5|39=A|40=2|44=3000|54=2|55=XBTCNY|59=0|60=20160323-09:35:40.679|150=A|151=1|10=206|
8=FIX.4.4|9=282|35=8|34=3|49=BTCC-PRO-EXCHANGE-SERVER|52=20160323-09:35:50.932|56=a0f4e9c8-925a-47f0-8521-b0f7257385f7|6=0|11=2016031723|14=0|17=5bf4bd05-b205-4c4c-b8d0-d348076efc53|32=0|37=d71f75b633834cca874d3e379609f5c5|39=0|40=2|44=3000|54=2|55=XBTCNY|59=0|60=20160323-09:35:40.679|150=0|151=1|10=048|
8=FIX.4.4|9=123|35=A|34=1|49=a0f4e9c8-925a-47f0-8521-b0f7257385f7|52=20160323-09:36:24.436|56=BTCC-PRO-EXCHANGE-SERVER|98=0|108=5000|141=Y|10=099|
8=FIX.4.4|9=123|35=A|34=1|49=BTCC-PRO-EXCHANGE-SERVER|52=20160323-09:36:24.506|56=a0f4e9c8-925a-47f0-8521-b0f7257385f7|98=0|108=5000|141=Y|10=097|
8=FIX.4.4|9=306|35=G|34=2|49=a0f4e9c8-925a-47f0-8521-b0f7257385f7|52=20160323-09:36:24.520|56=BTCC-PRO-EXCHANGE-SERVER|1=1458725777536000:Basic YWI2ODlkM2ItYWM2OC00MjlmLTgxZTgtNTM4YjhjNDI4NDI5OmVlZDgwZWFhNjRlY2QzYjM3ZjE3ZjkyMTExMTFiNjA4OGZlMDM4ZGI=|11=2016032208|37=d71f75b633834cca874d3e379609f5c5|38=1|44=2998|55=XBTCNY|10=092|
8=FIX.4.4|9=282|35=8|34=2|49=BTCC-PRO-EXCHANGE-SERVER|52=20160323-09:36:25.090|56=a0f4e9c8-925a-47f0-8521-b0f7257385f7|6=0|11=2016032208|14=0|17=5ebd0f3d-997b-4f67-842b-f94b2e88e986|32=0|37=d71f75b633834cca874d3e379609f5c5|39=0|40=2|44=2998|54=2|55=XBTCNY|59=0|60=20160323-09:35:40.679|150=5|151=1|10=074|
8=FIX.4.4|9=123|35=A|34=1|49=a0f4e9c8-925a-47f0-8521-b0f7257385f7|52=20160323-10:17:04.456|56=BTCC-PRO-EXCHANGE-SERVER|98=0|108=5000|141=Y|10=090|
8=FIX.4.4|9=123|35=A|34=1|49=BTCC-PRO-EXCHANGE-SERVER|52=20160323-10:17:04.531|56=a0f4e9c8-925a-47f0-8521-b0f7257385f7|98=0|108=5000|141=Y|10=084|
8=FIX.4.4|9=294|35=AF2|34=2|49=a0f4e9c8-925a-47f0-8521-b0f7257385f7|52=20160323-10:17:04.596|56=BTCC-PRO-EXCHANGE-SERVER|1=1458728220334000:Basic YWI2ODlkM2ItYWM2OC00MjlmLTgxZTgtNTM4YjhjNDI4NDI5OjUxMDY3ZDhlYzA0MTIyNGIxNDRlM2M2YTdjYmEzMTVhZjcyOWYwNjQ=|55=XBTCNY|584=reqIDJ7|9020=6|39=A|39=0|39=2|39=3|39=1|39=S|10=219|
8=FIX.4.4|9=214|35=8|34=2|49=BTCC-PRO-EXCHANGE-SERVER|52=20160323-10:17:04.872|56=a0f4e9c8-925a-47f0-8521-b0f7257385f7|6=0|14=0|17=9f377acd-c1a6-49ae-800a-920e008d7e28|37=-1|39=8|44=0|54=1|55=XBTCNY|103=15|150=8|151=0|584=reqIDJ7|10=211|
8=FIX.4.4|9=123|35=A|34=1|49=a0f4e9c8-925a-47f0-8521-b0f7257385f7|52=20160323-10:18:05.448|56=BTCC-PRO-EXCHANGE-SERVER|98=0|108=5000|141=Y|10=093|
8=FIX.4.4|9=123|35=A|34=1|49=BTCC-PRO-EXCHANGE-SERVER|52=20160323-10:18:05.498|56=a0f4e9c8-925a-47f0-8521-b0f7257385f7|98=0|108=5000|141=Y|10=098|
8=FIX.4.4|9=294|35=AF2|34=2|49=a0f4e9c8-925a-47f0-8521-b0f7257385f7|52=20160323-10:18:05.734|56=BTCC-PRO-EXCHANGE-SERVER|1=1458728220334000:Basic YWI2ODlkM2ItYWM2OC00MjlmLTgxZTgtNTM4YjhjNDI4NDI5OjUxMDY3ZDhlYzA0MTIyNGIxNDRlM2M2YTdjYmEzMTVhZjcyOWYwNjQ=|55=XBTCNY|584=reqIDJ7|9020=6|39=A|39=0|39=2|39=3|39=1|39=S|10=215|
8=FIX.4.4|9=214|35=8|34=2|49=BTCC-PRO-EXCHANGE-SERVER|52=20160323-10:18:06.108|56=a0f4e9c8-925a-47f0-8521-b0f7257385f7|6=0|14=0|17=1d61255f-6df7-44a6-a9ca-08d87705ba07|37=-1|39=8|44=0|54=1|55=XBTCNY|103=15|150=8|151=0|584=reqIDJ7|10=160|
8=FIX.4.4|9=123|35=A|34=1|49=a0f4e9c8-925a-47f0-8521-b0f7257385f7|52=20160323-10:18:18.670|56=BTCC-PRO-EXCHANGE-SERVER|98=0|108=5000|141=Y|10=094|
8=FIX.4.4|9=123|35=A|34=1|49=BTCC-PRO-EXCHANGE-SERVER|52=20160323-10:18:18.729|56=a0f4e9c8-925a-47f0-8521-b0f7257385f7|98=0|108=5000|141=Y|10=099|
8=FIX.4.4|9=294|35=AF2|34=2|49=a0f4e9c8-925a-47f0-8521-b0f7257385f7|52=20160323-10:18:18.742|56=BTCC-PRO-EXCHANGE-SERVER|1=1458728295037000:Basic YWI2ODlkM2ItYWM2OC00MjlmLTgxZTgtNTM4YjhjNDI4NDI5OjYwM2I1ZTk4NGUyN2FmZmI1NWJhZTQ5YjBmYzlmZjIxNWFkOTFlOGM=|55=XBTCNY|584=reqIDJ7|9020=6|39=A|39=0|39=2|39=3|39=1|39=S|10=106|
8=FIX.4.4|9=214|35=8|34=2|49=BTCC-PRO-EXCHANGE-SERVER|52=20160323-10:18:21.591|56=a0f4e9c8-925a-47f0-8521-b0f7257385f7|6=0|14=0|17=3c30f7ec-55ec-4d87-bff3-8e33cfca332f|37=-1|39=8|44=0|54=1|55=XBTCNY|103=15|150=8|151=0|584=reqIDJ7|10=150|
8=FIX.4.4|9=123|35=A|34=1|49=a0f4e9c8-925a-47f0-8521-b0f7257385f7|52=20160323-10:19:52.947|56=BTCC-PRO-EXCHANGE-SERVER|98=0|108=5000|141=Y|10=100|
8=FIX.4.4|9=123|35=A|34=1|49=BTCC-PRO-EXCHANGE-SERVER|52=20160323-10:19:53.347|56=a0f4e9c8-925a-47f0-8521-b0f7257385f7|98=0|108=5000|141=Y|10=095|
8=FIX.4.4|9=294|35=AF2|34=2|49=a0f4e9c8-925a-47f0-8521-b0f7257385f7|52=20160323-10:19:53.556|56=BTCC-PRO-EXCHANGE-SERVER|1=1458728389601000:Basic NzQyOTM0NjAtN2Y5Zi00ZmFlLWFjOTAtZjA3NjNjMWYyZGI5OjllMzM0N2JiYjFiNDQ2YjEyNGU0YmZiMmYzZmY1ZWQxY2MzODAxM2U=|55=XBTCNY|584=reqIDJ7|9020=6|39=A|39=0|39=2|39=3|39=1|39=S|10=217|
8=FIX.4.4|9=123|35=A|34=1|49=a0f4e9c8-925a-47f0-8521-b0f7257385f7|52=20160323-10:20:03.528|56=BTCC-PRO-EXCHANGE-SERVER|98=0|108=5000|141=Y|10=083|
8=FIX.4.4|9=123|35=A|34=1|49=BTCC-PRO-EXCHANGE-SERVER|52=20160323-10:20:03.580|56=a0f4e9c8-925a-47f0-8521-b0f7257385f7|98=0|108=5000|141=Y|10=081|
8=FIX.4.4|9=294|35=AF2|34=2|49=a0f4e9c8-925a-47f0-8521-b0f7257385f7|52=20160323-10:20:03.589|56=BTCC-PRO-EXCHANGE-SERVER|1=1458728400378000:Basic NzQyOTM0NjAtN2Y5Zi00ZmFlLWFjOTAtZjA3NjNjMWYyZGI5OmIyMWVjOTVjN2U2MTM2MjMxMzIwNTFlYzU2Njg1ODhiNjVhMzI4ODg=|55=XBTCNY|584=reqIDJ7|9020=6|39=A|39=0|39=2|39=3|39=1|39=S|10=213|
8=FIX.4.4|9=231|35=8|34=2|49=BTCC-PRO-EXCHANGE-SERVER|52=20160323-10:20:05.389|56=a0f4e9c8-925a-47f0-8521-b0f7257385f7|6=0|14=0|17=3711af18-6ae3-4e7d-80cd-7f4614c98110|37=-1|39=8|44=0|54=1|55=XBTCNY|58=account error|103=15|150=8|151=0|584=reqIDJ7|10=081|
8=FIX.4.4|9=123|35=A|34=1|49=a0f4e9c8-925a-47f0-8521-b0f7257385f7|52=20160323-10:21:06.060|56=BTCC-PRO-EXCHANGE-SERVER|98=0|108=5000|141=Y|10=078|
8=FIX.4.4|9=123|35=A|34=1|49=BTCC-PRO-EXCHANGE-SERVER|52=20160323-10:21:06.129|56=a0f4e9c8-925a-47f0-8521-b0f7257385f7|98=0|108=5000|141=Y|10=084|
8=FIX.4.4|9=294|35=AF2|34=2|49=a0f4e9c8-925a-47f0-8521-b0f7257385f7|52=20160323-10:21:06.133|56=BTCC-PRO-EXCHANGE-SERVER|1=1458728462435000:Basic YWI2ODlkM2ItYWM2OC00MjlmLTgxZTgtNTM4YjhjNDI4NDI5OjMzYWU2MGYxYzgzYmQzOTY0N2JhMTI4MzdhMzRmZjExNzlhNzg0YTY=|55=XBTCNY|584=reqIDJ7|9020=6|39=A|39=0|39=2|39=3|39=1|39=S|10=111|
8=FIX.4.4|9=241|35=8|34=2|49=BTCC-PRO-EXCHANGE-SERVER|52=20160323-10:21:06.583|56=a0f4e9c8-925a-47f0-8521-b0f7257385f7|6=0|14=0|17=0|37=8d5ed0a8d47649b7ba643ef612dd2bf8|39=0|40=2|44=2773|54=2|55=XBTCNY|60=20160323-02:03:23.869|150=I|151=1|584=reqIDJ7|912=Y|10=170|
8=FIX.4.4|9=123|35=A|34=1|49=a0f4e9c8-925a-47f0-8521-b0f7257385f7|52=20160323-10:21:51.175|56=BTCC-PRO-EXCHANGE-SERVER|98=0|108=5000|141=Y|10=085|
8=FIX.4.4|9=123|35=A|34=1|49=BTCC-PRO-EXCHANGE-SERVER|52=20160323-10:21:51.336|56=a0f4e9c8-925a-47f0-8521-b0f7257385f7|98=0|108=5000|141=Y|10=084|
8=FIX.4.4|9=294|35=AF2|34=2|49=a0f4e9c8-925a-47f0-8521-b0f7257385f7|52=20160323-10:21:51.353|56=BTCC-PRO-EXCHANGE-SERVER|1=1458728506845000:Basic YWI2ODlkM2ItYWM2OC00MjlmLTgxZTgtNTM4YjhjNDI4NDI5OjY4ODkwMzk4ZjBjODI0YjlkZWUwMzgxMzM2MDE2NTEyYmU2NmNkNWU=|55=XBTCNY|584=reqIDJ7|9020=6|39=A|39=0|39=2|39=3|39=1|39=S|10=194|
8=FIX.4.4|9=241|35=8|34=2|49=BTCC-PRO-EXCHANGE-SERVER|52=20160323-10:21:51.835|56=a0f4e9c8-925a-47f0-8521-b0f7257385f7|6=0|14=0|17=0|37=8d5ed0a8d47649b7ba643ef612dd2bf8|39=0|40=2|44=2773|54=2|55=XBTCNY|60=20160323-02:03:23.869|150=I|151=1|584=reqIDJ7|912=Y|10=170|
8=FIX.4.4|9=123|35=A|34=1|49=a0f4e9c8-925a-47f0-8521-b0f7257385f7|52=20160323-10:22:44.593|56=BTCC-PRO-EXCHANGE-SERVER|98=0|108=5000|141=Y|10=092|
8=FIX.4.4|9=123|35=A|34=1|49=BTCC-PRO-EXCHANGE-SERVER|52=20160323-10:22:46.300|56=a0f4e9c8-925a-47f0-8521-b0f7257385f7|98=0|108=5000|141=Y|10=080|
8=FIX.4.4|9=294|35=AF2|34=2|49=a0f4e9c8-925a-47f0-8521-b0f7257385f7|52=20160323-10:22:46.317|56=BTCC-PRO-EXCHANGE-SERVER|1=1458728560073000:Basic YWI2ODlkM2ItYWM2OC00MjlmLTgxZTgtNTM4YjhjNDI4NDI5OjM1Y2RjYjVkMWZhNTk2MjE5MDhkYThkYjQ4ZTljNzhkNTUyOTMyMDg=|55=XBTCNY|584=reqIDJ7|9020=6|39=A|39=0|39=2|39=3|39=1|39=S|10=241|
8=FIX.4.4|9=241|35=8|34=2|49=BTCC-PRO-EXCHANGE-SERVER|52=20160323-10:22:46.723|56=a0f4e9c8-925a-47f0-8521-b0f7257385f7|6=0|14=0|17=0|37=8d5ed0a8d47649b7ba643ef612dd2bf8|39=0|40=2|44=2774|54=2|55=XBTCNY|60=20160323-02:03:23.869|150=I|151=1|584=reqIDJ7|912=Y|10=172|
8=FIX.4.4|9=123|35=A|34=1|49=a0f4e9c8-925a-47f0-8521-b0f7257385f7|52=20160323-10:23:03.626|56=BTCC-PRO-EXCHANGE-SERVER|98=0|108=5000|141=Y|10=085|
8=FIX.4.4|9=123|35=A|34=1|49=BTCC-PRO-EXCHANGE-SERVER|52=20160323-10:23:03.678|56=a0f4e9c8-925a-47f0-8521-b0f7257385f7|98=0|108=5000|141=Y|10=092|
8=FIX.4.4|9=294|35=AF2|34=2|49=a0f4e9c8-925a-47f0-8521-b0f7257385f7|52=20160323-10:23:03.710|56=BTCC-PRO-EXCHANGE-SERVER|1=1458728580143000:Basic YWI2ODlkM2ItYWM2OC00MjlmLTgxZTgtNTM4YjhjNDI4NDI5OjY1NDFhMDUyN2QwMmMyY2I5MDI3MTNhYmVlOWZiN2U1OGVhNjc1N2U=|55=XBTCNY|584=reqIDJ7|9020=6|39=A|39=0|39=2|39=3|39=1|39=S|10=119|
8=FIX.4.4|9=186|35=8|34=2|49=BTCC-PRO-EXCHANGE-SERVER|52=20160323-10:23:03.974|56=a0f4e9c8-925a-47f0-8521-b0f7257385f7|6=0|14=0|17=0|37=-1|39=8|54=1|55=XBTCNY|58=No orders|150=8|151=0|584=reqIDJ7|912=Y|10=209|
8=FIX.4.4|9=123|35=A|34=1|49=a0f4e9c8-925a-47f0-8521-b0f7257385f7|52=20160323-10:25:09.530|56=BTCC-PRO-EXCHANGE-SERVER|98=0|108=5000|141=Y|10=087|
8=FIX.4.4|9=123|35=A|34=1|49=BTCC-PRO-EXCHANGE-SERVER|52=20160323-10:25:09.577|56=a0f4e9c8-925a-47f0-8521-b0f7257385f7|98=0|108=5000|141=Y|10=098|
8=FIX.4.4|9=294|35=AF2|34=2|49=a0f4e9c8-925a-47f0-8521-b0f7257385f7|52=20160323-10:25:09.581|56=BTCC-PRO-EXCHANGE-SERVER|1=1458728703833000:Basic YWI2ODlkM2ItYWM2OC00MjlmLTgxZTgtNTM4YjhjNDI4NDI5OjM1ODgxZGQ4MDE5ZDU3NTVlMmQzZWQyZjBjMmRlMzM2YzlmZjUxNzI=|55=XBTCNY|584=reqIDJ7|9020=6|39=A|39=0|39=2|39=3|39=1|39=S|10=229|
8=FIX.4.4|9=186|35=8|34=2|49=BTCC-PRO-EXCHANGE-SERVER|52=20160323-10:25:09.996|56=a0f4e9c8-925a-47f0-8521-b0f7257385f7|6=0|14=0|17=0|37=-1|39=8|54=1|55=XBTCNY|58=No orders|150=8|151=0|584=reqIDJ7|912=Y|10=221|
8=FIX.4.4|9=123|35=A|34=1|49=a0f4e9c8-925a-47f0-8521-b0f7257385f7|52=20160323-10:26:10.526|56=BTCC-PRO-EXCHANGE-SERVER|98=0|108=5000|141=Y|10=085|
8=FIX.4.4|9=123|35=A|34=1|49=BTCC-PRO-EXCHANGE-SERVER|52=20160323-10:26:10.596|56=a0f4e9c8-925a-47f0-8521-b0f7257385f7|98=0|108=5000|141=Y|10=092|
8=FIX.4.4|9=294|35=AF2|34=2|49=a0f4e9c8-925a-47f0-8521-b0f7257385f7|52=20160323-10:26:10.607|56=BTCC-PRO-EXCHANGE-SERVER|1=1458728703833000:Basic YWI2ODlkM2ItYWM2OC00MjlmLTgxZTgtNTM4YjhjNDI4NDI5OjM1ODgxZGQ4MDE5ZDU3NTVlMmQzZWQyZjBjMmRlMzM2YzlmZjUxNzI=|55=XBTCNY|584=reqIDJ7|9020=6|39=A|39=0|39=2|39=3|39=1|39=S|10=221|
8=FIX.4.4|9=214|35=8|34=2|49=BTCC-PRO-EXCHANGE-SERVER|52=20160323-10:26:10.859|56=a0f4e9c8-925a-47f0-8521-b0f7257385f7|6=0|14=0|17=1b48943e-aba0-4826-8125-b1ae0271d4f8|37=-1|39=8|44=0|54=1|55=XBTCNY|103=15|150=8|151=0|584=reqIDJ7|10=105|
8=FIX.4.4|9=123|35=A|34=1|49=a0f4e9c8-925a-47f0-8521-b0f7257385f7|52=20160323-10:26:48.645|56=BTCC-PRO-EXCHANGE-SERVER|98=0|108=5000|141=Y|10=098|
8=FIX.4.4|9=123|35=A|34=1|49=BTCC-PRO-EXCHANGE-SERVER|52=20160323-10:26:48.692|56=a0f4e9c8-925a-47f0-8521-b0f7257385f7|98=0|108=5000|141=Y|10=100|
8=FIX.4.4|9=294|35=AF2|34=2|49=a0f4e9c8-925a-47f0-8521-b0f7257385f7|52=20160323-10:26:48.954|56=BTCC-PRO-EXCHANGE-SERVER|1=1458728804679000:Basic YWI2ODlkM2ItYWM2OC00MjlmLTgxZTgtNTM4YjhjNDI4NDI5OjdjNDNhYzk3ZjViMzFmYzcwY2VmM2U1Y2E0ZjY3MTY0OTlmY2E2ZjY=|55=XBTCNY|584=reqIDJ7|9020=6|39=A|39=0|39=2|39=3|39=1|39=S|10=105|
8=FIX.4.4|9=186|35=8|34=2|49=BTCC-PRO-EXCHANGE-SERVER|52=20160323-10:26:49.367|56=a0f4e9c8-925a-47f0-8521-b0f7257385f7|6=0|14=0|17=0|37=-1|39=8|54=1|55=XBTCNY|58=No orders|150=8|151=0|584=reqIDJ7|912=Y|10=218|
8=FIX.4.4|9=123|35=A|34=1|49=a0f4e9c8-925a-47f0-8521-b0f7257385f7|52=20160323-10:29:24.751|56=BTCC-PRO-EXCHANGE-SERVER|98=0|108=5000|141=Y|10=093|
8=FIX.4.4|9=123|35=A|34=1|49=BTCC-PRO-EXCHANGE-SERVER|52=20160323-10:29:24.800|56=a0f4e9c8-925a-47f0-8521-b0f7257385f7|98=0|108=5000|141=Y|10=088|
8=FIX.4.4|9=348|35=AF2|34=2|49=a0f4e9c8-925a-47f0-8521-b0f7257385f7|52=20160323-10:29:24.829|56=BTCC-PRO-EXCHANGE-SERVER|1=1458728960315000:Basic YWI2ODlkM2ItYWM2OC00MjlmLTgxZTgtNTM4YjhjNDI4NDI5OmQ4YmNhYmQ4MmJjN2JkZDQ4OTFmODc2NTk3MmI2OGY4MTZmMDQ3NGU=|55=XBTCNY|584=reqIDJ7|9010=19700101-00:00:00.000|9011=20160528-16:00:00.000|9020=6|39=A|39=0|39=2|39=3|39=1|39=S|10=151|
8=FIX.4.4|9=248|35=8|34=2|49=BTCC-PRO-EXCHANGE-SERVER|52=20160323-10:29:25.473|56=a0f4e9c8-925a-47f0-8521-b0f7257385f7|6=2730.2|14=2|17=0|37=b664892606714a15b97a544ea53cc2d7|39=3|40=2|44=2730.2|54=1|55=XBTCNY|60=20160322-05:21:12.362|150=I|151=0|584=reqIDJ7|912=N|10=002|
8=FIX.4.4|9=248|35=8|34=3|49=BTCC-PRO-EXCHANGE-SERVER|52=20160323-10:29:25.474|56=a0f4e9c8-925a-47f0-8521-b0f7257385f7|6=2738.3|14=1|17=0|37=af1977e86a4c45cb8311577af4961722|39=3|40=2|44=2738.1|54=2|55=XBTCNY|60=20160322-05:19:30.503|150=I|151=0|584=reqIDJ7|912=N|10=033|
8=FIX.4.4|9=244|35=8|34=4|49=BTCC-PRO-EXCHANGE-SERVER|52=20160323-10:29:25.474|56=a0f4e9c8-925a-47f0-8521-b0f7257385f7|6=2720|14=1|17=0|37=ccd4da80022d43fb97d1c1464e260615|39=3|40=2|44=2720|54=1|55=XBTCNY|60=20160322-02:38:06.638|150=I|151=0|584=reqIDJ7|912=N|10=153|
8=FIX.4.4|9=244|35=8|34=5|49=BTCC-PRO-EXCHANGE-SERVER|52=20160323-10:29:25.474|56=a0f4e9c8-925a-47f0-8521-b0f7257385f7|6=2723|14=1|17=0|37=95d1937e5a5948e88b8d602bc02826d5|39=3|40=2|44=2723|54=2|55=XBTCNY|60=20160322-02:33:25.826|150=I|151=0|584=reqIDJ7|912=N|10=096|
8=FIX.4.4|9=244|35=8|34=6|49=BTCC-PRO-EXCHANGE-SERVER|52=20160323-10:29:25.474|56=a0f4e9c8-925a-47f0-8521-b0f7257385f7|6=2650|14=1|17=0|37=e2e94576804945a284170854f561548e|39=3|40=2|44=2650|54=1|55=XBTCNY|60=20160318-08:16:47.890|150=I|151=0|584=reqIDJ7|912=N|10=178|
8=FIX.4.4|9=244|35=8|34=7|49=BTCC-PRO-EXCHANGE-SERVER|52=20160323-10:29:25.474|56=a0f4e9c8-925a-47f0-8521-b0f7257385f7|6=2710|14=1|17=0|37=1ea01f3b45aa4d84b33aead2b6e274b2|39=3|40=2|44=2710|54=1|55=XBTCNY|60=20160318-08:16:26.921|150=I|151=0|584=reqIDJ7|912=N|10=081|
8=FIX.4.4|9=248|35=8|34=8|49=BTCC-PRO-EXCHANGE-SERVER|52=20160323-10:29:25.475|56=a0f4e9c8-925a-47f0-8521-b0f7257385f7|6=2731.2|14=1|17=0|37=97068a89756c4803b67c708fb5a7dd22|39=3|40=2|44=2731.2|54=2|55=XBTCNY|60=20160318-06:20:26.261|150=I|151=0|584=reqIDJ7|912=N|10=037|
8=FIX.4.4|9=248|35=8|34=9|49=BTCC-PRO-EXCHANGE-SERVER|52=20160323-10:29:25.475|56=a0f4e9c8-925a-47f0-8521-b0f7257385f7|6=2727.9|14=1|17=0|37=145f2cbd459b44d4a2936f8326b62a1b|39=3|40=2|44=2727.9|54=1|55=XBTCNY|60=20160318-06:19:41.074|150=I|151=0|584=reqIDJ7|912=N|10=137|
8=FIX.4.4|9=247|35=8|34=10|49=BTCC-PRO-EXCHANGE-SERVER|52=20160323-10:29:25.475|56=a0f4e9c8-925a-47f0-8521-b0f7257385f7|6=2730|14=1|17=0|37=1adf070ca53a4c6b91ab68ff74753b28|39=3|40=2|44=2729.1|54=2|55=XBTCNY|60=20160318-05:58:19.385|150=I|151=0|584=reqIDJ7|912=N|10=171|
8=FIX.4.4|9=242|35=8|34=11|49=BTCC-PRO-EXCHANGE-SERVER|52=20160323-10:29:25.475|56=a0f4e9c8-925a-47f0-8521-b0f7257385f7|6=0|14=0|17=0|37=14a8a7df2252467981767a8aeac78e37|39=0|40=2|44=2644|54=1|55=XBTCNY|60=20160318-05:04:52.181|150=I|151=1|584=reqIDJ7|912=N|10=025|
8=FIX.4.4|9=249|35=8|34=12|49=BTCC-PRO-EXCHANGE-SERVER|52=20160323-10:29:25.475|56=a0f4e9c8-925a-47f0-8521-b0f7257385f7|6=2741.9|14=1|17=0|37=7710df5126ea44f2bd3a5f5bd6efc22c|39=3|40=2|44=2741.9|54=2|55=XBTCNY|60=20160318-03:38:31.115|150=I|151=0|584=reqIDJ7|912=N|10=099|
8=FIX.4.4|9=245|35=8|34=13|49=BTCC-PRO-EXCHANGE-SERVER|52=20160323-10:29:25.476|56=a0f4e9c8-925a-47f0-8521-b0f7257385f7|6=2750|14=1|17=0|37=0c23ec83c4c74343892a4089f4fbfc7f|39=3|40=2|44=2750|54=2|55=XBTCNY|60=20160314-03:01:46.187|150=I|151=0|584=reqIDJ7|912=N|10=023|
8=FIX.4.4|9=249|35=8|34=14|49=BTCC-PRO-EXCHANGE-SERVER|52=20160323-10:29:25.476|56=a0f4e9c8-925a-47f0-8521-b0f7257385f7|6=2746.4|14=1|17=0|37=af3e06a4f959498282c832007db134a2|39=3|40=2|44=2746.4|54=1|55=XBTCNY|60=20160314-02:59:34.703|150=I|151=0|584=reqIDJ7|912=N|10=081|
8=FIX.4.4|9=249|35=8|34=15|49=BTCC-PRO-EXCHANGE-SERVER|52=20160323-10:29:25.476|56=a0f4e9c8-925a-47f0-8521-b0f7257385f7|6=2742.6|14=1|17=0|37=96519b1b8d1f4a3a941ddb9a35178cc3|39=3|40=2|44=2742.6|54=2|55=XBTCNY|60=20160312-07:37:14.611|150=I|151=0|584=reqIDJ7|912=N|10=220|
8=FIX.4.4|9=249|35=8|34=16|49=BTCC-PRO-EXCHANGE-SERVER|52=20160323-10:29:25.476|56=a0f4e9c8-925a-47f0-8521-b0f7257385f7|6=2736.6|14=1|17=0|37=c5e952b72fcd4724adc4981345324720|39=3|40=2|44=2736.6|54=1|55=XBTCNY|60=20160312-07:31:36.549|150=I|151=0|584=reqIDJ7|912=N|10=090|
8=FIX.4.4|9=245|35=8|34=17|49=BTCC-PRO-EXCHANGE-SERVER|52=20160323-10:29:25.476|56=a0f4e9c8-925a-47f0-8521-b0f7257385f7|6=2732|14=1|17=0|37=cde38ea591064c499dc6d5ad67f5c3a9|39=3|40=2|44=2732|54=2|55=XBTCNY|60=20160312-07:26:48.705|150=I|151=0|584=reqIDJ7|912=N|10=137|
8=FIX.4.4|9=245|35=8|34=18|49=BTCC-PRO-EXCHANGE-SERVER|52=20160323-10:29:25.490|56=a0f4e9c8-925a-47f0-8521-b0f7257385f7|6=2720|14=1|17=0|37=97bad570d7ce441897f971e51a3ec4cb|39=3|40=2|44=2720|54=1|55=XBTCNY|60=20160310-08:22:35.712|150=I|151=0|584=reqIDJ7|912=N|10=064|
8=FIX.4.4|9=249|35=8|34=19|49=BTCC-PRO-EXCHANGE-SERVER|52=20160323-10:29:25.490|56=a0f4e9c8-925a-47f0-8521-b0f7257385f7|6=2730.9|14=1|17=0|37=c46d80c621894502a74539f2aa074258|39=3|40=2|44=2730.9|54=2|55=XBTCNY|60=20160310-05:11:01.768|150=I|151=0|584=reqIDJ7|912=N|10=233|
8=FIX.4.4|9=249|35=8|34=20|49=BTCC-PRO-EXCHANGE-SERVER|52=20160323-10:29:25.490|56=a0f4e9c8-925a-47f0-8521-b0f7257385f7|6=2731.8|14=1|17=0|37=798105fadb0c4a21b1aab1f5536a907b|39=3|40=2|44=2731.8|54=2|55=XBTCNY|60=20160310-03:51:16.047|150=I|151=0|584=reqIDJ7|912=N|10=231|
8=FIX.4.4|9=249|35=8|34=21|49=BTCC-PRO-EXCHANGE-SERVER|52=20160323-10:29:25.490|56=a0f4e9c8-925a-47f0-8521-b0f7257385f7|6=2729.7|14=1|17=0|37=d3af5b22c0274715acf2390102ecff69|39=3|40=2|44=2729.7|54=1|55=XBTCNY|60=20160310-03:50:16.906|150=I|151=0|584=reqIDJ7|912=N|10=208|
8=FIX.4.4|9=245|35=8|34=22|49=BTCC-PRO-EXCHANGE-SERVER|52=20160323-10:29:25.491|56=a0f4e9c8-925a-47f0-8521-b0f7257385f7|6=2749|14=1|17=0|37=0eb497c9ab96419aac46686317789f27|39=3|40=2|44=2749|54=2|55=XBTCNY|60=20160308-02:03:02.643|150=I|151=0|584=reqIDJ7|912=N|10=158|
8=FIX.4.4|9=249|35=8|34=23|49=BTCC-PRO-EXCHANGE-SERVER|52=20160323-10:29:25.491|56=a0f4e9c8-925a-47f0-8521-b0f7257385f7|6=2744.1|14=1|17=0|37=6dfe9bff4eb948678c693ff99005428a|39=3|40=2|44=2744.1|54=1|55=XBTCNY|60=20160307-13:07:05.666|150=I|151=0|584=reqIDJ7|912=N|10=255|
8=FIX.4.4|9=249|35=8|34=24|49=BTCC-PRO-EXCHANGE-SERVER|52=20160323-10:29:25.491|56=a0f4e9c8-925a-47f0-8521-b0f7257385f7|6=2700.1|14=1|17=0|37=c519aaee517c43259c3ab52bc4885ad6|39=3|40=2|44=2700.1|54=1|55=XBTCNY|60=20160303-06:32:59.071|150=I|151=0|584=reqIDJ7|912=N|10=241|
8=FIX.4.4|9=249|35=8|34=25|49=BTCC-PRO-EXCHANGE-SERVER|52=20160323-10:29:25.491|56=a0f4e9c8-925a-47f0-8521-b0f7257385f7|6=2744.3|14=1|17=0|37=a682a364ef2544cfbe8955b95cda2565|39=3|40=2|44=2744.3|54=2|55=XBTCNY|60=20160224-06:03:02.392|150=I|151=0|584=reqIDJ7|912=N|10=225|
8=FIX.4.4|9=249|35=8|34=26|49=BTCC-PRO-EXCHANGE-SERVER|52=20160323-10:29:25.491|56=a0f4e9c8-925a-47f0-8521-b0f7257385f7|6=2701.1|14=1|17=0|37=ffbc139d2f8d48619583c56d442a0803|39=3|40=2|44=2701.1|54=1|55=XBTCNY|60=20160223-09:23:03.635|150=I|151=0|584=reqIDJ7|912=N|10=112|
8=FIX.4.4|9=249|35=8|34=27|49=BTCC-PRO-EXCHANGE-SERVER|52=20160323-10:29:25.491|56=a0f4e9c8-925a-47f0-8521-b0f7257385f7|6=2819.9|14=1|17=0|37=2135bd8c3de54e7b8e8854d2c5fe80bc|39=3|40=2|44=2819.9|54=2|55=XBTCNY|60=20160223-09:22:45.041|150=I|151=0|584=reqIDJ7|912=N|10=083|
8=FIX.4.4|9=249|35=8|34=28|49=BTCC-PRO-EXCHANGE-SERVER|52=20160323-10:29:25.492|56=a0f4e9c8-925a-47f0-8521-b0f7257385f7|6=2815.1|14=1|17=0|37=14aad4c1a301489480344f687f9a2b9e|39=3|40=2|44=2815.1|54=1|55=XBTCNY|60=20160223-09:17:02.838|150=I|151=0|584=reqIDJ7|912=N|10=125|
8=FIX.4.4|9=245|35=8|34=29|49=BTCC-PRO-EXCHANGE-SERVER|52=20160323-10:29:25.492|56=a0f4e9c8-925a-47f0-8521-b0f7257385f7|6=2817|14=1|17=0|37=ed77faea176d4689b09eef22a53a3b6d|39=3|40=2|44=2817|54=2|55=XBTCNY|60=20160223-08:38:14.977|150=I|151=0|584=reqIDJ7|912=N|10=194|
8=FIX.4.4|9=249|35=8|34=30|49=BTCC-PRO-EXCHANGE-SERVER|52=20160323-10:29:25.492|56=a0f4e9c8-925a-47f0-8521-b0f7257385f7|6=2815.1|14=1|17=0|37=841e496d61f9401d8ac28a29ec342785|39=3|40=2|44=2815.1|54=1|55=XBTCNY|60=20160223-08:35:05.602|150=I|151=0|584=reqIDJ7|912=N|10=075|
8=FIX.4.4|9=245|35=8|34=31|49=BTCC-PRO-EXCHANGE-SERVER|52=20160323-10:29:25.492|56=a0f4e9c8-925a-47f0-8521-b0f7257385f7|6=2821|14=1|17=0|37=02164988821845a6bc602d8df2bad89d|39=3|40=2|44=2821|54=2|55=XBTCNY|60=20160219-07:13:56.569|150=I|151=0|584=reqIDJ7|912=N|10=194|
8=FIX.4.4|9=239|35=8|34=32|49=BTCC-PRO-EXCHANGE-SERVER|52=20160323-10:29:25.492|56=a0f4e9c8-925a-47f0-8521-b0f7257385f7|6=2834.9|14=1|17=0|37=8bf236662efa40aeb58876eab7c91699|39=3|40=1|54=1|55=XBTCNY|60=20160219-06:59:37.599|150=I|151=0|584=reqIDJ7|912=N|10=052|
8=FIX.4.4|9=245|35=8|34=33|49=BTCC-PRO-EXCHANGE-SERVER|52=20160323-10:29:25.505|56=a0f4e9c8-925a-47f0-8521-b0f7257385f7|6=2842|14=1|17=0|37=6f1e9a1bb9cc4d13b5e5c424de88a08c|39=3|40=2|44=2842|54=2|55=XBTCNY|60=20160219-06:19:58.926|150=I|151=0|584=reqIDJ7|912=N|10=174|
8=FIX.4.4|9=245|35=8|34=34|49=BTCC-PRO-EXCHANGE-SERVER|52=20160323-10:29:25.506|56=a0f4e9c8-925a-47f0-8521-b0f7257385f7|6=2838|14=1|17=0|37=0017da1a4548453abe93f976091053c5|39=3|40=2|44=2838|54=1|55=XBTCNY|60=20160219-02:11:10.200|150=I|151=0|584=reqIDJ7|912=N|10=061|
8=FIX.4.4|9=237|35=8|34=35|49=BTCC-PRO-EXCHANGE-SERVER|52=20160323-10:29:25.506|56=a0f4e9c8-925a-47f0-8521-b0f7257385f7|6=2840|14=1|17=0|37=3e473f72fdc24049bfc9700f74ae5940|39=3|40=1|54=2|55=XBTCNY|60=20160219-01:27:17.542|150=I|151=0|584=reqIDJ7|912=N|10=114|
8=FIX.4.4|9=249|35=8|34=36|49=BTCC-PRO-EXCHANGE-SERVER|52=20160323-10:29:25.506|56=a0f4e9c8-925a-47f0-8521-b0f7257385f7|6=2852.5|14=1|17=0|37=e8ec6dc41c4944ae85341e1fd4e24dc3|39=3|40=3|54=2|55=XBTCNY|60=20160218-08:36:26.136|99=2852.5|150=I|151=0|584=reqIDJ7|912=N|10=081|
8=FIX.4.4|9=237|35=8|34=37|49=BTCC-PRO-EXCHANGE-SERVER|52=20160323-10:29:25.506|56=a0f4e9c8-925a-47f0-8521-b0f7257385f7|6=2843|14=1|17=0|37=c871a5e387074198aefba5790ce8e8ae|39=3|40=1|54=1|55=XBTCNY|60=20160218-08:07:58.745|150=I|151=0|584=reqIDJ7|912=N|10=239|
8=FIX.4.4|9=249|35=8|34=38|49=BTCC-PRO-EXCHANGE-SERVER|52=20160323-10:29:25.506|56=a0f4e9c8-925a-47f0-8521-b0f7257385f7|6=2829.8|14=1|17=0|37=05992e006921496585b1adc2bb64e79d|39=3|40=2|44=2829.8|54=1|55=XBTCNY|60=20160218-03:23:13.424|150=I|151=0|584=reqIDJ7|912=N|10=094|
8=FIX.4.4|9=249|35=8|34=39|49=BTCC-PRO-EXCHANGE-SERVER|52=20160323-10:29:25.507|56=a0f4e9c8-925a-47f0-8521-b0f7257385f7|6=2831.6|14=1|17=0|37=193ed55d8a554fd1b2a11f7d6f8e074a|39=3|40=2|44=2831.6|54=2|55=XBTCNY|60=20160218-03:21:16.736|150=I|151=0|584=reqIDJ7|912=N|10=016|
8=FIX.4.4|9=249|35=8|34=40|49=BTCC-PRO-EXCHANGE-SERVER|52=20160323-10:29:25.507|56=a0f4e9c8-925a-47f0-8521-b0f7257385f7|6=2737.2|14=1|17=0|37=120edf233e4e42cebdbb3927ba694a9c|39=3|40=2|44=2737.2|54=1|55=XBTCNY|60=20160216-04:38:59.837|150=I|151=0|584=reqIDJ7|912=N|10=110|
8=FIX.4.4|9=249|35=8|34=41|49=BTCC-PRO-EXCHANGE-SERVER|52=20160323-10:29:25.507|56=a0f4e9c8-925a-47f0-8521-b0f7257385f7|6=2738.1|14=1|17=0|37=23062311a941451fbf32306175fd1150|39=3|40=2|44=2738.1|54=2|55=XBTCNY|60=20160216-04:38:42.134|150=I|151=0|584=reqIDJ7|912=N|10=155|
8=FIX.4.4|9=245|35=8|34=42|49=BTCC-PRO-EXCHANGE-SERVER|52=20160323-10:29:25.507|56=a0f4e9c8-925a-47f0-8521-b0f7257385f7|6=2750|14=1|17=0|37=b0059d339f854747b43ad4f04811d770|39=3|40=3|54=2|55=XBTCNY|60=20160215-03:38:44.744|99=2750|150=I|151=0|584=reqIDJ7|912=N|10=095|
8=FIX.4.4|9=245|35=8|34=43|49=BTCC-PRO-EXCHANGE-SERVER|52=20160323-10:29:25.507|56=a0f4e9c8-925a-47f0-8521-b0f7257385f7|6=2715|14=1|17=0|37=27f97611672c425f8cde0ba3378ac796|39=3|40=2|44=2715|54=1|55=XBTCNY|60=20160214-12:04:31.106|150=I|151=0|584=reqIDJ7|912=N|10=174|
8=FIX.4.4|9=249|35=8|34=44|49=BTCC-PRO-EXCHANGE-SERVER|52=20160323-10:29:25.508|56=a0f4e9c8-925a-47f0-8521-b0f7257385f7|6=2648.5|14=1|17=0|37=3fb72aa18d2041918b576db42c568e9c|39=3|40=2|44=2648.5|54=1|55=XBTCNY|60=20160213-12:50:58.580|150=I|151=0|584=reqIDJ7|912=N|10=182|
8=FIX.4.4|9=249|35=8|34=45|49=BTCC-PRO-EXCHANGE-SERVER|52=20160323-10:29:25.508|56=a0f4e9c8-925a-47f0-8521-b0f7257385f7|6=2650.2|14=1|17=0|37=1b2746cfab4947d19ffc68a9e66e5be0|39=3|40=2|44=2650.2|54=2|55=XBTCNY|60=20160205-09:07:57.310|150=I|151=0|584=reqIDJ7|912=N|10=065|
8=FIX.4.4|9=249|35=8|34=46|49=BTCC-PRO-EXCHANGE-SERVER|52=20160323-10:29:25.508|56=a0f4e9c8-925a-47f0-8521-b0f7257385f7|6=2597.8|14=1|17=0|37=e70993457efa4b88afaa7eb2927140a9|39=3|40=2|44=2597.8|54=2|55=XBTCNY|60=20160205-08:45:30.091|150=I|151=0|584=reqIDJ7|912=N|10=252|
8=FIX.4.4|9=249|35=8|34=47|49=BTCC-PRO-EXCHANGE-SERVER|52=20160323-10:29:25.521|56=a0f4e9c8-925a-47f0-8521-b0f7257385f7|6=2589.7|14=1|17=0|37=e9d7bbb3a7f548e8bbe081d4fb891df5|39=3|40=2|44=2589.7|54=1|55=XBTCNY|60=20160205-02:08:16.751|150=I|151=0|584=reqIDJ7|912=N|10=187|
8=FIX.4.4|9=249|35=8|34=48|49=BTCC-PRO-EXCHANGE-SERVER|52=20160323-10:29:25.521|56=a0f4e9c8-925a-47f0-8521-b0f7257385f7|6=2591.2|14=1|17=0|37=6b3f39a229074a7ca9bd1e6eec724620|39=3|40=2|44=2591.2|54=1|55=XBTCNY|60=20160205-01:24:54.562|150=I|151=0|584=reqIDJ7|912=N|10=209|
8=FIX.4.4|9=249|35=8|34=49|49=BTCC-PRO-EXCHANGE-SERVER|52=20160323-10:29:25.521|56=a0f4e9c8-925a-47f0-8521-b0f7257385f7|6=2593.3|14=1|17=0|37=59d5ab01cfb54f45a5b6bbe1f3f50b3e|39=3|40=2|44=2593.3|54=2|55=XBTCNY|60=20160205-01:24:40.093|150=I|151=0|584=reqIDJ7|912=N|10=136|
8=FIX.4.4|9=249|35=8|34=50|49=BTCC-PRO-EXCHANGE-SERVER|52=20160323-10:29:25.522|56=a0f4e9c8-925a-47f0-8521-b0f7257385f7|6=2501.3|14=1|17=0|37=c8c3587622fc4961bbf898556ae35b2d|39=3|40=2|44=2501.3|54=2|55=XBTCNY|60=20160203-11:03:30.913|150=I|151=0|584=reqIDJ7|912=N|10=152|
8=FIX.4.4|9=249|35=8|34=51|49=BTCC-PRO-EXCHANGE-SERVER|52=20160323-10:29:25.522|56=a0f4e9c8-925a-47f0-8521-b0f7257385f7|6=2494.1|14=1|17=0|37=a316fbaec2784a01b4148a920c8072b3|39=3|40=2|44=2494.1|54=1|55=XBTCNY|60=20160203-09:53:16.098|150=I|151=0|584=reqIDJ7|912=N|10=148|
8=FIX.4.4|9=249|35=8|34=52|49=BTCC-PRO-EXCHANGE-SERVER|52=20160323-10:29:25.522|56=a0f4e9c8-925a-47f0-8521-b0f7257385f7|6=2496.7|14=1|17=0|37=535d06e555774c7ea04f735d516a7519|39=3|40=2|44=2496.7|54=2|55=XBTCNY|60=20160203-09:39:29.301|150=I|151=0|584=reqIDJ7|912=N|10=051|
8=FIX.4.4|9=249|35=8|34=53|49=BTCC-PRO-EXCHANGE-SERVER|52=20160323-10:29:25.522|56=a0f4e9c8-925a-47f0-8521-b0f7257385f7|6=2494.2|14=1|17=0|37=6d7d23ab21854bc2aa9ce94edecb913a|39=3|40=2|44=2494.2|54=1|55=XBTCNY|60=20160203-08:47:44.503|150=I|151=0|584=reqIDJ7|912=N|10=144|
8=FIX.4.4|9=245|35=8|34=54|49=BTCC-PRO-EXCHANGE-SERVER|52=20160323-10:29:25.522|56=a0f4e9c8-925a-47f0-8521-b0f7257385f7|6=2498|14=1|17=0|37=62772435dc4d48f79f62fc3def1d040c|39=3|40=2|44=2498|54=2|55=XBTCNY|60=20160203-08:04:27.048|150=I|151=0|584=reqIDJ7|912=N|10=037|
8=FIX.4.4|9=249|35=8|34=55|49=BTCC-PRO-EXCHANGE-SERVER|52=20160323-10:29:25.522|56=a0f4e9c8-925a-47f0-8521-b0f7257385f7|6=2495.1|14=1|17=0|37=a74376a7187342fba177b91f586dc413|39=3|40=2|44=2495.1|54=1|55=XBTCNY|60=20160203-06:20:23.154|150=I|151=0|584=reqIDJ7|912=N|10=070|
8=FIX.4.4|9=249|35=8|34=56|49=BTCC-PRO-EXCHANGE-SERVER|52=20160323-10:29:25.523|56=a0f4e9c8-925a-47f0-8521-b0f7257385f7|6=2490.2|14=1|17=0|37=b83fe99183f74b2b908762626d57c2b8|39=3|40=3|54=2|55=XBTCNY|60=20160203-06:11:08.670|99=2493.5|150=I|151=0|584=reqIDJ7|912=N|10=105|
8=FIX.4.4|9=249|35=8|34=57|49=BTCC-PRO-EXCHANGE-SERVER|52=20160323-10:29:25.523|56=a0f4e9c8-925a-47f0-8521-b0f7257385f7|6=2490.5|14=1|17=0|37=ef8204e2d76c4105b565900a2ead783f|39=3|40=2|44=2490.5|54=1|55=XBTCNY|60=20160203-05:36:53.294|150=I|151=0|584=reqIDJ7|912=N|10=170|
8=FIX.4.4|9=249|35=8|34=58|49=BTCC-PRO-EXCHANGE-SERVER|52=20160323-10:29:25.523|56=a0f4e9c8-925a-47f0-8521-b0f7257385f7|6=2493.7|14=1|17=0|37=690eab2940304f8585e682cbe3ba1f8c|39=3|40=2|44=2493.7|54=2|55=XBTCNY|60=20160203-05:09:46.262|150=I|151=0|584=reqIDJ7|912=N|10=233|
8=FIX.4.4|9=249|35=8|34=59|49=BTCC-PRO-EXCHANGE-SERVER|52=20160323-10:29:25.523|56=a0f4e9c8-925a-47f0-8521-b0f7257385f7|6=2491.9|14=1|17=0|37=5bec2f048c1445f6a82f08fec4f29841|39=3|40=2|44=2491.9|54=1|55=XBTCNY|60=20160203-05:05:36.043|150=I|151=0|584=reqIDJ7|912=N|10=230|
8=FIX.4.4|9=245|35=8|34=60|49=BTCC-PRO-EXCHANGE-SERVER|52=20160323-10:29:25.523|56=a0f4e9c8-925a-47f0-8521-b0f7257385f7|6=2496|14=1|17=0|37=48dd342acea64aebb61195f489b43bb5|39=3|40=2|44=2496|54=2|55=XBTCNY|60=20160203-03:10:11.508|150=I|151=0|584=reqIDJ7|912=N|10=101|
8=FIX.4.4|9=249|35=8|34=61|49=BTCC-PRO-EXCHANGE-SERVER|52=20160323-10:29:25.537|56=a0f4e9c8-925a-47f0-8521-b0f7257385f7|6=2489.1|14=1|17=0|37=4eea6045ae2045ff87a8e6997b0ed5d1|39=3|40=2|44=2489.1|54=1|55=XBTCNY|60=20160203-02:56:57.304|150=I|151=0|584=reqIDJ7|912=N|10=027|
8=FIX.4.4|9=249|35=8|34=62|49=BTCC-PRO-EXCHANGE-SERVER|52=20160323-10:29:25.537|56=a0f4e9c8-925a-47f0-8521-b0f7257385f7|6=2495.1|14=1|17=0|37=9346fde7a843487a963c46d2b3eb515a|39=3|40=2|44=2495.1|54=2|55=XBTCNY|60=20160203-01:50:56.177|150=I|151=0|584=reqIDJ7|912=N|10=184|
8=FIX.4.4|9=249|35=8|34=63|49=BTCC-PRO-EXCHANGE-SERVER|52=20160323-10:29:25.537|56=a0f4e9c8-925a-47f0-8521-b0f7257385f7|6=2493.1|14=1|17=0|37=e1026d81d6db48d7bf313c70ce3fa754|39=3|40=2|44=2493.1|54=1|55=XBTCNY|60=20160202-13:53:01.452|150=I|151=0|584=reqIDJ7|912=N|10=251|
8=FIX.4.4|9=239|35=8|34=64|49=BTCC-PRO-EXCHANGE-SERVER|52=20160323-10:29:25.537|56=a0f4e9c8-925a-47f0-8521-b0f7257385f7|6=2492.5|14=1|17=0|37=86896f543c6a411e949894cd55583556|39=3|40=1|54=2|55=XBTCNY|60=20160202-13:48:19.280|150=I|151=0|584=reqIDJ7|912=N|10=014|
8=FIX.4.4|9=249|35=8|34=65|49=BTCC-PRO-EXCHANGE-SERVER|52=20160323-10:29:25.537|56=a0f4e9c8-925a-47f0-8521-b0f7257385f7|6=2506.9|14=1|17=0|37=3462147824264dcca2a28e076ce904d2|39=3|40=2|44=2506.9|54=1|55=XBTCNY|60=20160202-05:52:10.640|150=I|151=0|584=reqIDJ7|912=N|10=063|
8=FIX.4.4|9=249|35=8|34=66|49=BTCC-PRO-EXCHANGE-SERVER|52=20160323-10:29:25.537|56=a0f4e9c8-925a-47f0-8521-b0f7257385f7|6=2494.6|14=1|17=0|37=3e7c62030dcd4bbf93f2abcdb75be113|39=3|40=2|44=2494.6|54=2|55=XBTCNY|60=20160202-03:45:30.621|150=I|151=0|584=reqIDJ7|912=N|10=140|
8=FIX.4.4|9=249|35=8|34=67|49=BTCC-PRO-EXCHANGE-SERVER|52=20160323-10:29:25.538|56=a0f4e9c8-925a-47f0-8521-b0f7257385f7|6=2491.1|14=1|17=0|37=e1584e6099da47548d605a14151ab5f2|39=3|40=2|44=2491.1|54=1|55=XBTCNY|60=20160202-02:04:35.149|150=I|151=0|584=reqIDJ7|912=N|10=068|
8=FIX.4.4|9=247|35=8|34=68|49=BTCC-PRO-EXCHANGE-SERVER|52=20160323-10:29:25.538|56=a0f4e9c8-925a-47f0-8521-b0f7257385f7|6=2516.2|14=1|17=0|37=9df374d72be9430aa32903e086134804|39=3|40=2|44=2480|54=2|55=XBTCNY|60=20160130-05:12:31.880|150=I|151=0|584=reqIDJ7|912=N|10=176|
8=FIX.4.4|9=247|35=8|34=69|49=BTCC-PRO-EXCHANGE-SERVER|52=20160323-10:29:25.538|56=a0f4e9c8-925a-47f0-8521-b0f7257385f7|6=2547.9|14=1|17=0|37=4c8c566badf142af85bc67f3f3d3ec4b|39=3|40=2|44=2548|54=1|55=XBTCNY|60=20160129-11:32:38.961|150=I|151=0|584=reqIDJ7|912=N|10=083|
8=FIX.4.4|9=249|35=8|34=70|49=BTCC-PRO-EXCHANGE-SERVER|52=20160323-10:29:25.538|56=a0f4e9c8-925a-47f0-8521-b0f7257385f7|6=2541.7|14=1|17=0|37=761888de422844999a4cb723f5bee24c|39=3|40=2|44=2541.7|54=2|55=XBTCNY|60=20160129-10:51:55.444|150=I|151=0|584=reqIDJ7|912=N|10=147|
8=FIX.4.4|9=245|35=8|34=71|49=BTCC-PRO-EXCHANGE-SERVER|52=20160323-10:29:25.538|56=a0f4e9c8-925a-47f0-8521-b0f7257385f7|6=2529|14=1|17=0|37=94206a6b707b42afa7d5540685da3d34|39=3|40=2|44=2529|54=1|55=XBTCNY|60=20160129-10:51:47.428|150=I|151=0|584=reqIDJ7|912=N|10=183|
8=FIX.4.4|9=237|35=8|34=72|49=BTCC-PRO-EXCHANGE-SERVER|52=20160323-10:29:25.539|56=a0f4e9c8-925a-47f0-8521-b0f7257385f7|6=2531|14=1|17=0|37=e75e10e13c8d400b8bac2efc1b7e337d|39=3|40=1|54=2|55=XBTCNY|60=20160129-10:21:22.599|150=I|151=0|584=reqIDJ7|912=N|10=034|
8=FIX.4.4|9=237|35=8|34=73|49=BTCC-PRO-EXCHANGE-SERVER|52=20160323-10:29:25.539|56=a0f4e9c8-925a-47f0-8521-b0f7257385f7|6=2517|14=1|17=0|37=da40b49f62f04be386127323c007e533|39=3|40=1|54=1|55=XBTCNY|60=20160129-10:11:38.365|150=I|151=0|584=reqIDJ7|912=N|10=004|
8=FIX.4.4|9=245|35=8|34=74|49=BTCC-PRO-EXCHANGE-SERVER|52=20160323-10:29:25.539|56=a0f4e9c8-925a-47f0-8521-b0f7257385f7|6=2500|14=1|17=0|37=611075e218d44189b2de30f90e5fde94|39=3|40=2|44=2500|54=2|55=XBTCNY|60=20160129-09:49:31.567|150=I|151=0|584=reqIDJ7|912=N|10=190|
8=FIX.4.4|9=249|35=8|34=75|49=BTCC-PRO-EXCHANGE-SERVER|52=20160323-10:29:25.539|56=a0f4e9c8-925a-47f0-8521-b0f7257385f7|6=2481.1|14=1|17=0|37=bf5e578c44c141eb853a90975d5247b4|39=3|40=2|44=2481.1|54=1|55=XBTCNY|60=20160129-09:47:17.083|150=I|151=0|584=reqIDJ7|912=N|10=144|
8=FIX.4.4|9=245|35=8|34=76|49=BTCC-PRO-EXCHANGE-SERVER|52=20160323-10:29:25.552|56=a0f4e9c8-925a-47f0-8521-b0f7257385f7|6=2450|14=1|17=0|37=00575023c8ea4e48aa2842840639af48|39=3|40=3|54=1|55=XBTCNY|60=20160129-03:26:05.571|99=2450|150=I|151=0|584=reqIDJ7|912=N|10=086|
8=FIX.4.4|9=249|35=8|34=77|49=BTCC-PRO-EXCHANGE-SERVER|52=20160323-10:29:25.552|56=a0f4e9c8-925a-47f0-8521-b0f7257385f7|6=2420.7|14=1|17=0|37=b150bc8d0b754282bf98011cc0742c58|39=3|40=2|44=2420.7|54=2|55=XBTCNY|60=20160129-03:21:56.711|150=I|151=0|584=reqIDJ7|912=N|10=104|
8=FIX.4.4|9=245|35=8|34=78|49=BTCC-PRO-EXCHANGE-SERVER|52=20160323-10:29:25.553|56=a0f4e9c8-925a-47f0-8521-b0f7257385f7|6=2419|14=1|17=0|37=873c749fa9b342638ca5520c5806a056|39=3|40=2|44=2419|54=2|55=XBTCNY|60=20160129-02:55:08.945|150=I|151=0|584=reqIDJ7|912=N|10=106|
8=FIX.4.4|9=239|35=8|34=79|49=BTCC-PRO-EXCHANGE-SERVER|52=20160323-10:29:25.553|56=a0f4e9c8-925a-47f0-8521-b0f7257385f7|6=2438.6|14=1|17=0|37=9c4b64d351224b538afe18cbe8b261cc|39=3|40=1|54=1|55=XBTCNY|60=20160129-02:52:52.429|150=I|151=0|584=reqIDJ7|912=N|10=056|
8=FIX.4.4|9=239|35=8|34=80|49=BTCC-PRO-EXCHANGE-SERVER|52=20160323-10:29:25.553|56=a0f4e9c8-925a-47f0-8521-b0f7257385f7|6=2443.7|14=1|17=0|37=b388f2bf340e43a699ebe41e082a06e3|39=3|40=1|54=1|55=XBTCNY|60=20160129-02:36:33.475|150=I|151=0|584=reqIDJ7|912=N|10=004|
8=FIX.4.4|9=247|35=8|34=81|49=BTCC-PRO-EXCHANGE-SERVER|52=20160323-10:29:25.553|56=a0f4e9c8-925a-47f0-8521-b0f7257385f7|6=2426|14=1|17=0|37=6c58acb7ec8d457685d0929e2b587cb1|39=3|40=2|44=2411.6|54=2|55=XBTCNY|60=20160129-02:32:30.850|150=I|151=0|584=reqIDJ7|912=N|10=127|
8=FIX.4.4|9=245|35=8|34=82|49=BTCC-PRO-EXCHANGE-SERVER|52=20160323-10:29:25.553|56=a0f4e9c8-925a-47f0-8521-b0f7257385f7|6=2660|14=1|17=0|37=49f8cf106ea345498b08586fcf7b1afa|39=3|40=3|54=2|55=XBTCNY|60=20160125-11:19:26.502|99=2660|150=I|151=0|584=reqIDJ7|912=N|10=086|
8=FIX.4.4|9=247|35=8|34=83|49=BTCC-PRO-EXCHANGE-SERVER|52=20160323-10:29:25.553|56=a0f4e9c8-925a-47f0-8521-b0f7257385f7|6=2658.9|14=1|17=0|37=10a694b9f6954c129dd0adde3b9b94c5|39=3|40=2|44=2659|54=1|55=XBTCNY|60=20160125-11:19:15.283|150=I|151=0|584=reqIDJ7|912=N|10=191|
8=FIX.4.4|9=249|35=8|34=84|49=BTCC-PRO-EXCHANGE-SERVER|52=20160323-10:29:25.554|56=a0f4e9c8-925a-47f0-8521-b0f7257385f7|6=2649.6|14=1|17=0|37=f4420c3402a34004b118d134205d1318|39=3|40=2|44=2649.6|54=2|55=XBTCNY|60=20160125-11:10:11.986|150=I|151=0|584=reqIDJ7|912=N|10=161|
8=FIX.4.4|9=247|35=8|34=85|49=BTCC-PRO-EXCHANGE-SERVER|52=20160323-10:29:25.554|56=a0f4e9c8-925a-47f0-8521-b0f7257385f7|6=2660.9|14=1|17=0|37=4f8078d4a6e742b39a1dab3e2f1b2168|39=3|40=2|44=2671|54=1|55=XBTCNY|60=20160125-11:09:14.064|150=I|151=0|584=reqIDJ7|912=N|10=117|
8=FIX.4.4|9=245|35=8|34=86|49=BTCC-PRO-EXCHANGE-SERVER|52=20160323-10:29:25.554|56=a0f4e9c8-925a-47f0-8521-b0f7257385f7|6=2650|14=1|17=0|37=24f4cbb716fd4c4a97c5edd5f06556c9|39=3|40=2|44=2650|54=2|55=XBTCNY|60=20160125-03:06:56.784|150=I|151=0|584=reqIDJ7|912=N|10=135|
8=FIX.4.4|9=249|35=8|34=87|49=BTCC-PRO-EXCHANGE-SERVER|52=20160323-10:29:25.554|56=a0f4e9c8-925a-47f0-8521-b0f7257385f7|6=2648.6|14=1|17=0|37=12887f04475a42ed8c3c875a87449292|39=3|40=2|44=2648.6|54=1|55=XBTCNY|60=20160125-02:39:50.377|150=I|151=0|584=reqIDJ7|912=N|10=024|
8=FIX.4.4|9=245|35=8|34=88|49=BTCC-PRO-EXCHANGE-SERVER|52=20160323-10:29:25.554|56=a0f4e9c8-925a-47f0-8521-b0f7257385f7|6=2700|14=1|17=0|37=4430febe0c2e43fd894f9999ea903e29|39=3|40=3|54=2|55=XBTCNY|60=20160122-02:22:53.056|99=2700|150=I|151=0|584=reqIDJ7|912=N|10=039|
8=FIX.4.4|9=249|35=8|34=89|49=BTCC-PRO-EXCHANGE-SERVER|52=20160323-10:29:25.554|56=a0f4e9c8-925a-47f0-8521-b0f7257385f7|6=2728.4|14=1|17=0|37=c1fb7551d9064701954ceb4efd6cc8f3|39=3|40=2|44=2728.4|54=1|55=XBTCNY|60=20160122-02:11:15.587|150=I|151=0|584=reqIDJ7|912=N|10=029|
8=FIX.4.4|9=247|35=8|34=90|49=BTCC-PRO-EXCHANGE-SERVER|52=20160323-10:29:25.555|56=a0f4e9c8-925a-47f0-8521-b0f7257385f7|6=2821|14=1|17=0|37=d0e20bc802194f0d8c478ee93e2fc5dd|39=3|40=3|54=2|55=XBTCNY|60=20160121-01:56:07.183|99=2823.1|150=I|151=0|584=reqIDJ7|912=N|10=219|
8=FIX.4.4|9=249|35=8|34=91|49=BTCC-PRO-EXCHANGE-SERVER|52=20160323-10:29:25.568|56=a0f4e9c8-925a-47f0-8521-b0f7257385f7|6=2831.4|14=1|17=0|37=67523db6d70e4e5fa057fe2d4db67e03|39=3|40=2|44=2831.4|54=1|55=XBTCNY|60=20160121-01:55:20.573|150=I|151=0|584=reqIDJ7|912=N|10=009|
8=FIX.4.4|9=245|35=8|34=92|49=BTCC-PRO-EXCHANGE-SERVER|52=20160323-10:29:25.568|56=a0f4e9c8-925a-47f0-8521-b0f7257385f7|6=2793|14=1|17=0|37=c0c93c5a60b8448db688579ab03a0cbd|39=3|40=2|44=2793|54=2|55=XBTCNY|60=20160120-14:55:37.256|150=I|151=0|584=reqIDJ7|912=N|10=082|
8=FIX.4.4|9=245|35=8|34=93|49=BTCC-PRO-EXCHANGE-SERVER|52=20160323-10:29:25.568|56=a0f4e9c8-925a-47f0-8521-b0f7257385f7|6=2625|14=1|17=0|37=94520c3584374d1381e6cd35edcff78c|39=3|40=2|44=2625|54=1|55=XBTCNY|60=20160120-12:59:43.721|150=I|151=0|584=reqIDJ7|912=N|10=244|
8=FIX.4.4|9=245|35=8|34=94|49=BTCC-PRO-EXCHANGE-SERVER|52=20160323-10:29:25.568|56=a0f4e9c8-925a-47f0-8521-b0f7257385f7|6=2885|14=1|17=0|37=9db4ccda794c4f209aa471a0f6c75fc4|39=3|40=2|44=2885|54=1|55=XBTCNY|60=20151211-10:49:11.758|150=I|151=0|584=reqIDJ7|912=N|10=187|
8=FIX.4.4|9=249|35=8|34=95|49=BTCC-PRO-EXCHANGE-SERVER|52=20160323-10:29:25.569|56=a0f4e9c8-925a-47f0-8521-b0f7257385f7|6=2647.9|14=1|17=0|37=e0af8df4b08346f0936378e3894235b9|39=3|40=2|44=2647.9|54=1|55=XBTCNY|60=20151207-12:36:14.147|150=I|151=0|584=reqIDJ7|912=N|10=121|
8=FIX.4.4|9=245|35=8|34=96|49=BTCC-PRO-EXCHANGE-SERVER|52=20160323-10:29:25.569|56=a0f4e9c8-925a-47f0-8521-b0f7257385f7|6=2645|14=1|17=0|37=878d1cc509a14f66b112650a6c718eec|39=3|40=2|44=2645|54=2|55=XBTCNY|60=20151207-12:29:29.631|150=I|151=0|584=reqIDJ7|912=N|10=246|
8=FIX.4.4|9=245|35=8|34=97|49=BTCC-PRO-EXCHANGE-SERVER|52=20160323-10:29:25.569|56=a0f4e9c8-925a-47f0-8521-b0f7257385f7|6=2642|14=1|17=0|37=ec73a1f2473e4eaf89d0c0adf47f74f2|39=3|40=2|44=2642|54=1|55=XBTCNY|60=20151207-12:29:22.521|150=I|151=0|584=reqIDJ7|912=N|10=173|
8=FIX.4.4|9=249|35=8|34=98|49=BTCC-PRO-EXCHANGE-SERVER|52=20160323-10:29:25.574|56=a0f4e9c8-925a-47f0-8521-b0f7257385f7|6=2634.9|14=1|17=0|37=ee3ea8d689bf487b8808b7e3cf4b082b|39=3|40=2|44=2634.9|54=1|55=XBTCNY|60=20151207-11:35:08.567|150=I|151=0|584=reqIDJ7|912=N|10=105|
8=FIX.4.4|9=247|35=8|34=99|49=BTCC-PRO-EXCHANGE-SERVER|52=20160323-10:29:25.574|56=a0f4e9c8-925a-47f0-8521-b0f7257385f7|6=2630.5|14=1|17=0|37=964ec5bd6d50479bb929ae47614f911e|39=3|40=3|54=2|55=XBTCNY|60=20151207-11:33:18.348|99=2710|150=I|151=0|584=reqIDJ7|912=N|10=104|
8=FIX.4.4|9=240|35=8|34=100|49=BTCC-PRO-EXCHANGE-SERVER|52=20160323-10:29:25.574|56=a0f4e9c8-925a-47f0-8521-b0f7257385f7|6=2624.2|14=1|17=0|37=5ea1e8583afc47b88d9e1f1435e23b4b|39=3|40=1|54=2|55=XBTCNY|60=20151207-11:21:18.144|150=I|151=0|584=reqIDJ7|912=N|10=080|
8=FIX.4.4|9=246|35=8|34=101|49=BTCC-PRO-EXCHANGE-SERVER|52=20160323-10:29:25.574|56=a0f4e9c8-925a-47f0-8521-b0f7257385f7|6=2580|14=1|17=0|37=7a27559bb6c240df940e17dc3b3a3bd3|39=3|40=2|44=2580|54=2|55=XBTCNY|60=20151207-09:34:57.188|150=I|151=0|584=reqIDJ7|912=N|10=115|
8=FIX.4.4|9=246|35=8|34=102|49=BTCC-PRO-EXCHANGE-SERVER|52=20160323-10:29:25.575|56=a0f4e9c8-925a-47f0-8521-b0f7257385f7|6=2593|14=1|17=0|37=1a5faae477ec48e29812850c9bc0cc3e|39=3|40=2|44=2593|54=1|55=XBTCNY|60=20151207-08:50:20.374|150=I|151=0|584=reqIDJ7|912=N|10=166|
8=FIX.4.4|9=250|35=8|34=103|49=BTCC-PRO-EXCHANGE-SERVER|52=20160323-10:29:25.575|56=a0f4e9c8-925a-47f0-8521-b0f7257385f7|6=2594.1|14=1|17=0|37=3dbef8bd9e454826aee770ca27d15c9e|39=3|40=2|44=2594.1|54=2|55=XBTCNY|60=20151207-08:50:09.311|150=I|151=0|584=reqIDJ7|912=N|10=158|
8=FIX.4.4|9=246|35=8|34=104|49=BTCC-PRO-EXCHANGE-SERVER|52=20160323-10:29:25.575|56=a0f4e9c8-925a-47f0-8521-b0f7257385f7|6=2595|14=1|17=0|37=b244a012706b4ad0aea735c23aeeb7f2|39=3|40=2|44=2595|54=1|55=XBTCNY|60=20151207-08:38:07.327|150=I|151=0|584=reqIDJ7|912=N|10=150|
8=FIX.4.4|9=250|35=8|34=105|49=BTCC-PRO-EXCHANGE-SERVER|52=20160323-10:29:25.575|56=a0f4e9c8-925a-47f0-8521-b0f7257385f7|6=2601.3|14=1|17=0|37=befd38c7c43042779421024ce23a98da|39=3|40=2|44=2601.3|54=2|55=XBTCNY|60=20151207-08:35:39.045|150=I|151=0|584=reqIDJ7|912=N|10=200|
8=FIX.4.4|9=250|35=8|34=106|49=BTCC-PRO-EXCHANGE-SERVER|52=20160323-10:29:25.575|56=a0f4e9c8-925a-47f0-8521-b0f7257385f7|6=2601.5|14=2|17=0|37=f829f0986cfa4835be64719e0b6f4ae6|39=3|40=2|44=2601.5|54=1|55=XBTCNY|60=20151207-07:51:00.607|150=I|151=0|584=reqIDJ7|912=N|10=013|
8=FIX.4.4|9=250|35=8|34=107|49=BTCC-PRO-EXCHANGE-SERVER|52=20160323-10:29:25.584|56=a0f4e9c8-925a-47f0-8521-b0f7257385f7|6=2603.7|14=1|17=0|37=e8111558130c4228b9e025bec9c3b6d0|39=3|40=2|44=2603.7|54=2|55=XBTCNY|60=20151207-07:50:36.138|150=I|151=0|584=reqIDJ7|912=N|10=153|
8=FIX.4.4|9=246|35=8|34=108|49=BTCC-PRO-EXCHANGE-SERVER|52=20160323-10:29:25.584|56=a0f4e9c8-925a-47f0-8521-b0f7257385f7|6=2620|14=1|17=0|37=5c00a71233a445d384c3d5770f8d940c|39=3|40=2|44=2616|54=2|55=XBTCNY|60=20151207-06:02:56.916|150=I|151=0|584=reqIDJ7|912=N|10=174|
8=FIX.4.4|9=246|35=8|34=109|49=BTCC-PRO-EXCHANGE-SERVER|52=20160323-10:29:25.584|56=a0f4e9c8-925a-47f0-8521-b0f7257385f7|6=2595|14=1|17=0|37=ff9f97ef4d7a4310ac77d347ce7f050d|39=3|40=2|44=2595|54=1|55=XBTCNY|60=20151207-05:24:53.040|150=I|151=0|584=reqIDJ7|912=N|10=186|
8=FIX.4.4|9=250|35=8|34=110|49=BTCC-PRO-EXCHANGE-SERVER|52=20160323-10:29:25.584|56=a0f4e9c8-925a-47f0-8521-b0f7257385f7|6=2599.9|14=1|17=0|37=42d22d4a12aa4faca3941a76b42cb8fb|39=3|40=2|44=2599.9|54=2|55=XBTCNY|60=20151207-05:24:18.821|150=I|151=0|584=reqIDJ7|912=N|10=147|
8=FIX.4.4|9=246|35=8|34=111|49=BTCC-PRO-EXCHANGE-SERVER|52=20160323-10:29:25.584|56=a0f4e9c8-925a-47f0-8521-b0f7257385f7|6=2600|14=1|17=0|37=31f750c6386b4e2eac7f546c0a9642e3|39=3|40=2|44=2600|54=1|55=XBTCNY|60=20151207-04:43:34.616|150=I|151=0|584=reqIDJ7|912=N|10=004|
8=FIX.4.4|9=246|35=8|34=112|49=BTCC-PRO-EXCHANGE-SERVER|52=20160323-10:29:25.585|56=a0f4e9c8-925a-47f0-8521-b0f7257385f7|6=2630|14=1|17=0|37=7dbdaf88ab134a50873606749fe8c0df|39=3|40=2|44=2630|54=2|55=XBTCNY|60=20151207-03:28:26.848|150=I|151=0|584=reqIDJ7|912=N|10=127|
8=FIX.4.4|9=246|35=8|34=113|49=BTCC-PRO-EXCHANGE-SERVER|52=20160323-10:29:25.585|56=a0f4e9c8-925a-47f0-8521-b0f7257385f7|6=2637|14=1|17=0|37=c403e685dd0046d3ab75e1f384bfe873|39=3|40=2|44=2637|54=2|55=XBTCNY|60=20151207-03:13:26.082|150=I|151=0|584=reqIDJ7|912=N|10=071|
8=FIX.4.4|9=246|35=8|34=114|49=BTCC-PRO-EXCHANGE-SERVER|52=20160323-10:29:25.585|56=a0f4e9c8-925a-47f0-8521-b0f7257385f7|6=2635|14=2|17=0|37=298051fc850544519dce96ed48e61f8d|39=3|40=2|44=2635|54=1|55=XBTCNY|60=20151207-03:12:53.707|150=I|151=0|584=reqIDJ7|912=N|10=252|
8=FIX.4.4|9=250|35=8|34=115|49=BTCC-PRO-EXCHANGE-SERVER|52=20160323-10:29:25.585|56=a0f4e9c8-925a-47f0-8521-b0f7257385f7|6=2606.1|14=1|17=0|37=b0757b1a8729492fae19781940c8fd71|39=3|40=2|44=2606.1|54=2|55=XBTCNY|60=20151207-02:03:17.315|150=I|151=0|584=reqIDJ7|912=N|10=117|
8=FIX.4.4|9=246|35=8|34=116|49=BTCC-PRO-EXCHANGE-SERVER|52=20160323-10:29:25.585|56=a0f4e9c8-925a-47f0-8521-b0f7257385f7|6=2610|14=1|17=0|37=377184c562e040e99684cad8ae01b6ee|39=3|40=3|54=2|55=XBTCNY|60=20151206-05:41:58.886|99=2610|150=I|151=0|584=reqIDJ7|912=N|10=043|
8=FIX.4.4|9=246|35=8|34=117|49=BTCC-PRO-EXCHANGE-SERVER|52=20160323-10:29:25.586|56=a0f4e9c8-925a-47f0-8521-b0f7257385f7|6=2688|14=1|17=0|37=d667a41d99c341ef8c61935cd18cf9c1|39=3|40=2|44=2688|54=1|55=XBTCNY|60=20151206-05:30:42.714|150=I|151=0|584=reqIDJ7|912=N|10=101|
8=FIX.4.4|9=246|35=8|34=118|49=BTCC-PRO-EXCHANGE-SERVER|52=20160323-10:29:25.586|56=a0f4e9c8-925a-47f0-8521-b0f7257385f7|6=2680|14=1|17=0|37=c12865dfceef427594921db37fed8bec|39=3|40=2|44=2680|54=2|55=XBTCNY|60=20151206-01:12:33.925|150=I|151=0|584=reqIDJ7|912=N|10=231|
8=FIX.4.4|9=246|35=8|34=119|49=BTCC-PRO-EXCHANGE-SERVER|52=20160323-10:29:25.586|56=a0f4e9c8-925a-47f0-8521-b0f7257385f7|6=2649|14=1|17=0|37=aa7a2f01c4c841ea828a2fcfe63b4a7a|39=3|40=2|44=2649|54=1|55=XBTCNY|60=20151206-00:47:36.299|150=I|151=0|584=reqIDJ7|912=N|10=014|
8=FIX.4.4|9=246|35=8|34=120|49=BTCC-PRO-EXCHANGE-SERVER|52=20160323-10:29:25.586|56=a0f4e9c8-925a-47f0-8521-b0f7257385f7|6=2620|14=1|17=0|37=87122e8ed05c4befadb2c01d8ab6d71f|39=3|40=2|44=2620|54=2|55=XBTCNY|60=20151206-00:20:56.314|150=I|151=0|584=reqIDJ7|912=N|10=228|
8=FIX.4.4|9=250|35=8|34=121|49=BTCC-PRO-EXCHANGE-SERVER|52=20160323-10:29:25.586|56=a0f4e9c8-925a-47f0-8521-b0f7257385f7|6=2601.6|14=1|17=0|37=c10018220f4d45aa909bf7c3cdccb0fd|39=3|40=2|44=2601.6|54=1|55=XBTCNY|60=20151206-00:15:09.064|150=I|151=0|584=reqIDJ7|912=N|10=108|
8=FIX.4.4|9=246|35=8|34=122|49=BTCC-PRO-EXCHANGE-SERVER|52=20160323-10:29:25.586|56=a0f4e9c8-925a-47f0-8521-b0f7257385f7|6=2620|14=1|17=0|37=e8d4a03e03574d4582ae7ad8ab42f0b4|39=3|40=2|44=2620|54=2|55=XBTCNY|60=20151205-23:38:16.016|150=I|151=0|584=reqIDJ7|912=N|10=094|
8=FIX.4.4|9=246|35=8|34=123|49=BTCC-PRO-EXCHANGE-SERVER|52=20160323-10:29:25.599|56=a0f4e9c8-925a-47f0-8521-b0f7257385f7|6=2600|14=1|17=0|37=7f17a42693984a2f8f133b9d7e876e5f|39=3|40=2|44=2600|54=1|55=XBTCNY|60=20151205-23:32:50.531|150=I|151=0|584=reqIDJ7|912=N|10=242|
8=FIX.4.4|9=240|35=8|34=124|49=BTCC-PRO-EXCHANGE-SERVER|52=20160323-10:29:25.599|56=a0f4e9c8-925a-47f0-8521-b0f7257385f7|6=2657.9|14=2|17=0|37=5ab4d3571fbe46c588dd24d7707dcbd6|39=2|40=1|54=1|55=XBTCNY|60=20151205-23:19:56.062|150=I|151=0|584=reqIDJ7|912=N|10=163|
8=FIX.4.4|9=246|35=8|34=125|49=BTCC-PRO-EXCHANGE-SERVER|52=20160323-10:29:25.600|56=a0f4e9c8-925a-47f0-8521-b0f7257385f7|6=2410|14=1|17=0|37=629bd1453f284afd894df9bb64cb50ab|39=2|40=2|44=2410|54=2|55=XBTCNY|60=20151204-14:51:39.504|150=I|151=0|584=reqIDJ7|912=N|10=141|
8=FIX.4.4|9=250|35=8|34=126|49=BTCC-PRO-EXCHANGE-SERVER|52=20160323-10:29:25.600|56=a0f4e9c8-925a-47f0-8521-b0f7257385f7|6=2320.1|14=1|17=0|37=15c5753f3510427288c782b400ee461d|39=2|40=2|44=2320.1|54=2|55=XBTCNY|60=20151204-03:43:48.436|150=I|151=0|584=reqIDJ7|912=N|10=242|
8=FIX.4.4|9=246|35=8|34=127|49=BTCC-PRO-EXCHANGE-SERVER|52=20160323-10:29:25.600|56=a0f4e9c8-925a-47f0-8521-b0f7257385f7|6=2320|14=1|17=0|37=b1b48cf5740945719650fd6c1c71fffb|39=3|40=2|44=2320|54=1|55=XBTCNY|60=20151203-08:41:02.511|150=I|151=0|584=reqIDJ7|912=N|10=041|
8=FIX.4.4|9=250|35=8|34=128|49=BTCC-PRO-EXCHANGE-SERVER|52=20160323-10:29:25.600|56=a0f4e9c8-925a-47f0-8521-b0f7257385f7|6=2356.4|14=1|17=0|37=3199da55820a4ab6a8ba1cf9f7106d5b|39=3|40=2|44=2356.4|54=2|55=XBTCNY|60=20151203-08:40:40.433|150=I|151=0|584=reqIDJ7|912=N|10=032|
8=FIX.4.4|9=238|35=8|34=129|49=BTCC-PRO-EXCHANGE-SERVER|52=20160323-10:29:25.600|56=a0f4e9c8-925a-47f0-8521-b0f7257385f7|6=2375|14=2|17=0|37=5de0933f7c1e40e0a376266f00ddc9e5|39=3|40=1|54=1|55=XBTCNY|60=20151203-08:19:00.401|150=I|151=0|584=reqIDJ7|912=N|10=190|
8=FIX.4.4|9=246|35=8|34=130|49=BTCC-PRO-EXCHANGE-SERVER|52=20160323-10:29:25.601|56=a0f4e9c8-925a-47f0-8521-b0f7257385f7|6=2400|14=1|17=0|37=3b24f125b3a345e8acfd33f5a292b21e|39=3|40=2|44=2400|54=2|55=XBTCNY|60=20151203-03:47:13.033|150=I|151=0|584=reqIDJ7|912=N|10=057|
8=FIX.4.4|9=246|35=8|34=131|49=BTCC-PRO-EXCHANGE-SERVER|52=20160323-10:29:25.601|56=a0f4e9c8-925a-47f0-8521-b0f7257385f7|6=2360|14=1|17=0|37=4eb8a62e5d3744e0af333b9f345bc92f|39=3|40=2|44=2360|54=2|55=XBTCNY|60=20151203-01:55:37.936|150=I|151=0|584=reqIDJ7|912=N|10=104|
8=FIX.4.4|9=246|35=8|34=132|49=BTCC-PRO-EXCHANGE-SERVER|52=20160323-10:29:25.601|56=a0f4e9c8-925a-47f0-8521-b0f7257385f7|6=2280|14=1|17=0|37=0a323116a46f4afdb865d7e29993f05b|39=3|40=2|44=2280|54=1|55=XBTCNY|60=20151202-06:23:04.025|150=I|151=0|584=reqIDJ7|912=N|10=247|
8=FIX.4.4|9=246|35=8|34=133|49=BTCC-PRO-EXCHANGE-SERVER|52=20160323-10:29:25.601|56=a0f4e9c8-925a-47f0-8521-b0f7257385f7|6=2285|14=1|17=0|37=415948c4cdac4548b4dcd4b837119dee|39=3|40=2|44=2285|54=2|55=XBTCNY|60=20151202-06:13:39.649|150=I|151=0|584=reqIDJ7|912=N|10=123|
8=FIX.4.4|9=246|35=8|34=134|49=BTCC-PRO-EXCHANGE-SERVER|52=20160323-10:29:25.601|56=a0f4e9c8-925a-47f0-8521-b0f7257385f7|6=2289|14=1|17=0|37=7bebcfdfc0ab4060883e0ac53863bf8d|39=3|40=2|44=2289|54=2|55=XBTCNY|60=20151202-06:10:24.618|150=I|151=0|584=reqIDJ7|912=N|10=251|
8=FIX.4.4|9=250|35=8|34=135|49=BTCC-PRO-EXCHANGE-SERVER|52=20160323-10:29:25.602|56=a0f4e9c8-925a-47f0-8521-b0f7257385f7|6=2285.1|14=1|17=0|37=4804e20117664707a97864210cb4bdf5|39=3|40=2|44=2285.1|54=1|55=XBTCNY|60=20151202-06:09:32.290|150=I|151=0|584=reqIDJ7|912=N|10=002|
8=FIX.4.4|9=246|35=8|34=136|49=BTCC-PRO-EXCHANGE-SERVER|52=20160323-10:29:25.615|56=a0f4e9c8-925a-47f0-8521-b0f7257385f7|6=2286|14=1|17=0|37=77e30a00de424dfb9956fea40ac92826|39=3|40=2|44=2286|54=1|55=XBTCNY|60=20151202-05:54:53.680|150=I|151=0|584=reqIDJ7|912=N|10=073|
8=FIX.4.4|9=246|35=8|34=137|49=BTCC-PRO-EXCHANGE-SERVER|52=20160323-10:29:25.615|56=a0f4e9c8-925a-47f0-8521-b0f7257385f7|6=2300|14=1|17=0|37=6f9ddaa9215b47679d4cb813c74de779|39=3|40=2|44=2300|54=2|55=XBTCNY|60=20151202-05:39:23.805|150=I|151=0|584=reqIDJ7|912=N|10=072|
8=FIX.4.4|9=250|35=8|34=138|49=BTCC-PRO-EXCHANGE-SERVER|52=20160323-10:29:25.615|56=a0f4e9c8-925a-47f0-8521-b0f7257385f7|6=2261.9|14=1|17=0|37=073bfa5d409e40c8911fc93f67628004|39=3|40=2|44=2261.9|54=2|55=XBTCNY|60=20151202-02:28:02.955|150=I|151=0|584=reqIDJ7|912=N|10=118|
8=FIX.4.4|9=246|35=8|34=139|49=BTCC-PRO-EXCHANGE-SERVER|52=20160323-10:29:25.615|56=a0f4e9c8-925a-47f0-8521-b0f7257385f7|6=2256|14=1|17=0|37=8fb3612dfb0a4219882184c38b2de268|39=3|40=2|44=2256|54=1|55=XBTCNY|60=20151202-02:11:22.955|150=I|151=0|584=reqIDJ7|912=N|10=222|
8=FIX.4.4|9=250|35=8|34=140|49=BTCC-PRO-EXCHANGE-SERVER|52=20160323-10:29:25.616|56=a0f4e9c8-925a-47f0-8521-b0f7257385f7|6=2361.1|14=1|17=0|37=ac27f834426e40b6892223edc7be5552|39=3|40=2|44=2361.1|54=1|55=XBTCNY|60=20151201-08:44:32.938|150=I|151=0|584=reqIDJ7|912=N|10=152|
8=FIX.4.4|9=246|35=8|34=141|49=BTCC-PRO-EXCHANGE-SERVER|52=20160323-10:29:25.616|56=a0f4e9c8-925a-47f0-8521-b0f7257385f7|6=2385|14=1|17=0|37=0e0c30a53be740cb8922a489b7cc35c9|39=3|40=2|44=2385|54=2|55=XBTCNY|60=20151201-08:38:40.469|150=I|151=0|584=reqIDJ7|912=N|10=067|
8=FIX.4.4|9=246|35=8|34=142|49=BTCC-PRO-EXCHANGE-SERVER|52=20160323-10:29:25.616|56=a0f4e9c8-925a-47f0-8521-b0f7257385f7|6=2400|14=2|17=0|37=3e1b9f87ed504aa4bb74b16b78dfa45f|39=3|40=2|44=2400|54=1|55=XBTCNY|60=20151201-08:36:54.360|150=I|151=0|584=reqIDJ7|912=N|10=192|
8=FIX.4.4|9=246|35=8|34=143|49=BTCC-PRO-EXCHANGE-SERVER|52=20160323-10:29:25.616|56=a0f4e9c8-925a-47f0-8521-b0f7257385f7|6=2421|14=1|17=0|37=7ddbd8f333bd4d9ab2b22c05e99443af|39=3|40=2|44=2420|54=2|55=XBTCNY|60=20151201-08:34:16.125|150=I|151=0|584=reqIDJ7|912=N|10=188|
8=FIX.4.4|9=250|35=8|34=144|49=BTCC-PRO-EXCHANGE-SERVER|52=20160323-10:29:25.617|56=a0f4e9c8-925a-47f0-8521-b0f7257385f7|6=2502.4|14=1|17=0|37=b59c1dc90b04475fab3085251ec2cb0b|39=3|40=2|44=2502.4|54=2|55=XBTCNY|60=20151201-02:01:49.738|150=I|151=0|584=reqIDJ7|912=N|10=015|
8=FIX.4.4|9=246|35=8|34=145|49=BTCC-PRO-EXCHANGE-SERVER|52=20160323-10:29:25.617|56=a0f4e9c8-925a-47f0-8521-b0f7257385f7|6=2450|14=1|17=0|37=864019c12338468f80a74727aaff0c70|39=3|40=2|44=2450|54=1|55=XBTCNY|60=20151130-13:04:35.667|150=I|151=0|584=reqIDJ7|912=N|10=126|
8=FIX.4.4|9=250|35=8|34=146|49=BTCC-PRO-EXCHANGE-SERVER|52=20160323-10:29:25.617|56=a0f4e9c8-925a-47f0-8521-b0f7257385f7|6=2478.8|14=1|17=0|37=7807b926c29d4429a4c7982046a5ee41|39=3|40=2|44=2478.8|54=1|55=XBTCNY|60=20151130-07:48:46.689|150=I|151=0|584=reqIDJ7|912=N|10=118|
8=FIX.4.4|9=240|35=8|34=147|49=BTCC-PRO-EXCHANGE-SERVER|52=20160323-10:29:25.617|56=a0f4e9c8-925a-47f0-8521-b0f7257385f7|6=2481.8|14=1|17=0|37=d03f2fdf12024a25b9b65a049924d2fd|39=3|40=1|54=2|55=XBTCNY|60=20151130-06:04:00.311|150=I|151=0|584=reqIDJ7|912=N|10=016|
8=FIX.4.4|9=238|35=8|34=148|49=BTCC-PRO-EXCHANGE-SERVER|52=20160323-10:29:25.617|56=a0f4e9c8-925a-47f0-8521-b0f7257385f7|6=2461|14=1|17=0|37=097597c4266442f48a6b104b3abe3e00|39=3|40=1|54=2|55=XBTCNY|60=20151130-05:41:19.013|150=I|151=0|584=reqIDJ7|912=N|10=045|
8=FIX.4.4|9=246|35=8|34=149|49=BTCC-PRO-EXCHANGE-SERVER|52=20160323-10:29:25.617|56=a0f4e9c8-925a-47f0-8521-b0f7257385f7|6=2480|14=1|17=0|37=6453805db6f54600a4756b8ed4cc2064|39=3|40=2|44=2480|54=1|55=XBTCNY|60=20151130-02:18:48.023|150=I|151=0|584=reqIDJ7|912=N|10=173|
